{
  "_format": "hh-sol-artifact-1",
  "contractName": "PurchasableLicenseManager",
  "sourceName": "contracts/PurchasableLicenseManager.sol",
  "abi": [
    {
      "inputs": [
        {
          "internalType": "string",
          "name": "description_",
          "type": "string"
        },
        {
          "internalType": "address",
          "name": "squadNftAddress",
          "type": "address"
        },
        {
          "internalType": "address",
          "name": "purchaseTokenAddress",
          "type": "address"
        },
        {
          "internalType": "address",
          "name": "royaltiesAddress_",
          "type": "address"
        }
      ],
      "stateMutability": "nonpayable",
      "type": "constructor"
    },
    {
      "anonymous": false,
      "inputs": [
        {
          "indexed": false,
          "internalType": "address",
          "name": "nftAddress",
          "type": "address"
        },
        {
          "indexed": false,
          "internalType": "uint256",
          "name": "nftId",
          "type": "uint256"
        },
        {
          "indexed": false,
          "internalType": "address",
          "name": "registrant",
          "type": "address"
        },
        {
          "indexed": false,
          "internalType": "uint256",
          "name": "price",
          "type": "uint256"
        },
        {
          "indexed": false,
          "internalType": "uint8",
          "name": "sharePercentage",
          "type": "uint8"
        },
        {
          "indexed": false,
          "internalType": "address",
          "name": "licenseTokenAddress",
          "type": "address"
        }
      ],
      "name": "NFTRegistered",
      "type": "event"
    },
    {
      "anonymous": false,
      "inputs": [
        {
          "indexed": false,
          "internalType": "address",
          "name": "nftAddress",
          "type": "address"
        },
        {
          "indexed": false,
          "internalType": "uint256",
          "name": "nftId",
          "type": "uint256"
        }
      ],
      "name": "NFTUnregistered",
      "type": "event"
    },
    {
      "anonymous": false,
      "inputs": [
        {
          "indexed": false,
          "internalType": "address",
          "name": "nftAddress",
          "type": "address"
        },
        {
          "indexed": false,
          "internalType": "uint256",
          "name": "nftId",
          "type": "uint256"
        },
        {
          "indexed": false,
          "internalType": "address",
          "name": "purchaser",
          "type": "address"
        },
        {
          "indexed": false,
          "internalType": "uint256",
          "name": "licensesBought",
          "type": "uint256"
        },
        {
          "indexed": false,
          "internalType": "uint256",
          "name": "price",
          "type": "uint256"
        },
        {
          "indexed": false,
          "internalType": "address",
          "name": "licenseTokenAddress",
          "type": "address"
        }
      ],
      "name": "Purchase",
      "type": "event"
    },
    {
      "inputs": [],
      "name": "NAME",
      "outputs": [
        {
          "internalType": "string",
          "name": "",
          "type": "string"
        }
      ],
      "stateMutability": "view",
      "type": "function"
    },
    {
      "inputs": [
        {
          "internalType": "address",
          "name": "creator",
          "type": "address"
        },
        {
          "internalType": "string",
          "name": "contentURI",
          "type": "string"
        },
        {
          "internalType": "string",
          "name": "metadataURI",
          "type": "string"
        },
        {
          "internalType": "bytes32",
          "name": "contentHash",
          "type": "bytes32"
        },
        {
          "internalType": "bytes32",
          "name": "metadataHash",
          "type": "bytes32"
        },
        {
          "internalType": "uint256",
          "name": "price",
          "type": "uint256"
        },
        {
          "internalType": "uint8",
          "name": "sharePercentage",
          "type": "uint8"
        }
      ],
      "name": "createAndRegisterNFT",
      "outputs": [],
      "stateMutability": "nonpayable",
      "type": "function"
    },
    {
      "inputs": [],
      "name": "description",
      "outputs": [
        {
          "internalType": "string",
          "name": "",
          "type": "string"
        }
      ],
      "stateMutability": "view",
      "type": "function"
    },
    {
      "inputs": [
        {
          "internalType": "address",
          "name": "nftAddress",
          "type": "address"
        },
        {
          "internalType": "uint256",
          "name": "nftId",
          "type": "uint256"
        },
        {
          "internalType": "address",
          "name": "holder",
          "type": "address"
        }
      ],
      "name": "holdsLicense",
      "outputs": [
        {
          "internalType": "bool",
          "name": "",
          "type": "bool"
        }
      ],
      "stateMutability": "view",
      "type": "function"
    },
    {
      "inputs": [
        {
          "internalType": "address",
          "name": "nftAddress",
          "type": "address"
        },
        {
          "internalType": "uint256",
          "name": "nftId",
          "type": "uint256"
        },
        {
          "internalType": "address",
          "name": "purchaser",
          "type": "address"
        },
        {
          "internalType": "uint256",
          "name": "numberToBuy",
          "type": "uint256"
        }
      ],
      "name": "purchase",
      "outputs": [],
      "stateMutability": "nonpayable",
      "type": "function"
    },
    {
      "inputs": [],
      "name": "purchaseToken",
      "outputs": [
        {
          "internalType": "contract ERC20",
          "name": "",
          "type": "address"
        }
      ],
      "stateMutability": "view",
      "type": "function"
    },
    {
      "inputs": [
        {
          "internalType": "address",
          "name": "nftAddress",
          "type": "address"
        },
        {
          "internalType": "uint256",
          "name": "nftId",
          "type": "uint256"
        },
        {
          "internalType": "address",
          "name": "registrant",
          "type": "address"
        },
        {
          "internalType": "uint256",
          "name": "price",
          "type": "uint256"
        },
        {
          "internalType": "uint8",
          "name": "sharePercentage",
          "type": "uint8"
        }
      ],
      "name": "registerNFT",
      "outputs": [],
      "stateMutability": "nonpayable",
      "type": "function"
    },
    {
      "inputs": [
        {
          "internalType": "address",
          "name": "",
          "type": "address"
        },
        {
          "internalType": "uint256",
          "name": "",
          "type": "uint256"
        }
      ],
      "name": "registeredNFTs",
      "outputs": [
        {
          "internalType": "uint256",
          "name": "price",
          "type": "uint256"
        },
        {
          "internalType": "uint8",
          "name": "sharePercentage",
          "type": "uint8"
        },
        {
          "internalType": "contract ERC20Mintable",
          "name": "licenseToken",
          "type": "address"
        }
      ],
      "stateMutability": "view",
      "type": "function"
    },
    {
      "inputs": [],
      "name": "royaltiesAddress",
      "outputs": [
        {
          "internalType": "address",
          "name": "",
          "type": "address"
        }
      ],
      "stateMutability": "view",
      "type": "function"
    },
    {
      "inputs": [],
      "name": "squadNft",
      "outputs": [
        {
          "internalType": "contract IERC721Squad",
          "name": "",
          "type": "address"
        }
      ],
      "stateMutability": "view",
      "type": "function"
    },
    {
      "inputs": [
        {
          "internalType": "address",
          "name": "nftAddress",
          "type": "address"
        },
        {
          "internalType": "uint256",
          "name": "nftId",
          "type": "uint256"
        }
      ],
      "name": "unregisterNFT",
      "outputs": [],
      "stateMutability": "nonpayable",
      "type": "function"
    }
  ],
  "bytecode": "0x60806040523480156200001157600080fd5b50604051620047be380380620047be833981810160405281019062000037919062000266565b838381600090805190602001906200005192919062000121565b5080600160006101000a81548173ffffffffffffffffffffffffffffffffffffffff021916908373ffffffffffffffffffffffffffffffffffffffff160217905550505081600360006101000a81548173ffffffffffffffffffffffffffffffffffffffff021916908373ffffffffffffffffffffffffffffffffffffffff16021790555080600460006101000a81548173ffffffffffffffffffffffffffffffffffffffff021916908373ffffffffffffffffffffffffffffffffffffffff16021790555050505050620004c9565b8280546200012f90620003c0565b90600052602060002090601f0160209004810192826200015357600085556200019f565b82601f106200016e57805160ff19168380011785556200019f565b828001600101855582156200019f579182015b828111156200019e57825182559160200191906001019062000181565b5b509050620001ae9190620001b2565b5090565b5b80821115620001cd576000816000905550600101620001b3565b5090565b6000620001e8620001e28462000320565b620002f7565b9050828152602081018484840111156200020757620002066200048f565b5b620002148482856200038a565b509392505050565b6000815190506200022d81620004af565b92915050565b600082601f8301126200024b576200024a6200048a565b5b81516200025d848260208601620001d1565b91505092915050565b6000806000806080858703121562000283576200028262000499565b5b600085015167ffffffffffffffff811115620002a457620002a362000494565b5b620002b28782880162000233565b9450506020620002c5878288016200021c565b9350506040620002d8878288016200021c565b9250506060620002eb878288016200021c565b91505092959194509250565b60006200030362000316565b9050620003118282620003f6565b919050565b6000604051905090565b600067ffffffffffffffff8211156200033e576200033d6200045b565b5b62000349826200049e565b9050602081019050919050565b600062000363826200036a565b9050919050565b600073ffffffffffffffffffffffffffffffffffffffff82169050919050565b60005b83811015620003aa5780820151818401526020810190506200038d565b83811115620003ba576000848401525b50505050565b60006002820490506001821680620003d957607f821691505b60208210811415620003f057620003ef6200042c565b5b50919050565b62000401826200049e565b810181811067ffffffffffffffff821117156200042357620004226200045b565b5b80604052505050565b7f4e487b7100000000000000000000000000000000000000000000000000000000600052602260045260246000fd5b7f4e487b7100000000000000000000000000000000000000000000000000000000600052604160045260246000fd5b600080fd5b600080fd5b600080fd5b600080fd5b6000601f19601f8301169050919050565b620004ba8162000356565b8114620004c657600080fd5b50565b6142e580620004d96000396000f3fe60806040523480156200001157600080fd5b5060043610620000b85760003560e01c8063a95c4d62116200007b578063a95c4d621462000165578063af9d46b21462000187578063b1db6ac914620001a7578063cb8d50d814620001df578063e5d1420f1462000215578063f4b50b5d146200023557620000b8565b80633288253514620000bd578063408c264d14620000df5780637284e41614620000ff5780637b30e4981462000121578063a3f4df7e1462000143575b600080fd5b620000c762000255565b604051620000d6919062001b62565b60405180910390f35b620000fd6004803603810190620000f7919062001779565b6200027b565b005b62000109620006e2565b60405162000118919062001d89565b60405180910390f35b6200012b62000778565b6040516200013a919062001d6c565b60405180910390f35b6200014d6200079e565b6040516200015c919062001d89565b60405180910390f35b6200016f620007d7565b6040516200017e919062001d4f565b60405180910390f35b620001a560048036038101906200019f919062001707565b620007fd565b005b620001c56004803603810190620001bf919062001664565b62000c3b565b604051620001d69392919062001eaf565b60405180910390f35b620001fd6004803603810190620001f79190620016ab565b62000c9f565b6040516200020c919062001d32565b60405180910390f35b6200023360048036038101906200022d919062001664565b62000f7d565b005b6200025360048036038101906200024d91906200156b565b620012ad565b005b600460009054906101000a900473ffffffffffffffffffffffffffffffffffffffff1681565b8273ffffffffffffffffffffffffffffffffffffffff168573ffffffffffffffffffffffffffffffffffffffff16636352211e866040518263ffffffff1660e01b8152600401620002cd919062001e92565b60206040518083038186803b158015620002e657600080fd5b505afa158015620002fb573d6000803e3d6000fd5b505050506040513d601f19601f8201168201806040525081019062000321919062001539565b73ffffffffffffffffffffffffffffffffffffffff16146200037a576040517f08c379a0000000000000000000000000000000000000000000000000000000008152600401620003719062001de8565b60405180910390fd5b60648160ff161115620003c4576040517f08c379a0000000000000000000000000000000000000000000000000000000008152600401620003bb9062001e4e565b60405180910390fd5b600085905060006040518060400160405280601981526020017f5075726368617361626c654c6963656e73654d616e61676572000000000000008152508273ffffffffffffffffffffffffffffffffffffffff166306fdde036040518163ffffffff1660e01b815260040160006040518083038186803b1580156200044857600080fd5b505afa1580156200045d573d6000803e3d6000fd5b505050506040513d6000823e3d601f19601f8201168201806040525081019062000488919062001833565b876040516020016200049d9392919062001aee565b604051602081830303815290604052905060008273ffffffffffffffffffffffffffffffffffffffff166395d89b416040518163ffffffff1660e01b815260040160006040518083038186803b158015620004f757600080fd5b505afa1580156200050c573d6000803e3d6000fd5b505050506040513d6000823e3d601f19601f8201168201806040525081019062000537919062001833565b876040516020016200054b92919062001b29565b6040516020818303038152906040529050600082826040516200056e90620013ad565b6200057b92919062001dad565b604051809103906000f08015801562000598573d6000803e3d6000fd5b50905060405180606001604052808781526020018660ff1681526020018273ffffffffffffffffffffffffffffffffffffffff16815250600260008b73ffffffffffffffffffffffffffffffffffffffff1673ffffffffffffffffffffffffffffffffffffffff16815260200190815260200160002060008a81526020019081526020016000206000820151816000015560208201518160010160006101000a81548160ff021916908360ff16021790555060408201518160010160016101000a81548173ffffffffffffffffffffffffffffffffffffffff021916908373ffffffffffffffffffffffffffffffffffffffff1602179055509050507ffb4f531fb739abb7d850da52cf968d0b1c6e848f731095f0b0cbf4cbf8f35f0a898989898986604051620006cf9695949392919062001cc5565b60405180910390a1505050505050505050565b60008054620006f190620020f1565b80601f01602080910402602001604051908101604052809291908181526020018280546200071f90620020f1565b8015620007705780601f10620007445761010080835404028352916020019162000770565b820191906000526020600020905b8154815290600101906020018083116200075257829003601f168201915b505050505081565b600160009054906101000a900473ffffffffffffffffffffffffffffffffffffffff1681565b6040518060400160405280601981526020017f5075726368617361626c654c6963656e73654d616e616765720000000000000081525081565b600360009054906101000a900473ffffffffffffffffffffffffffffffffffffffff1681565b83836000600260008473ffffffffffffffffffffffffffffffffffffffff1673ffffffffffffffffffffffffffffffffffffffff1681526020019081526020016000206000838152602001908152602001600020604051806060016040529081600082015481526020016001820160009054906101000a900460ff1660ff1660ff1681526020016001820160019054906101000a900473ffffffffffffffffffffffffffffffffffffffff1673ffffffffffffffffffffffffffffffffffffffff1673ffffffffffffffffffffffffffffffffffffffff16815250509050600073ffffffffffffffffffffffffffffffffffffffff16816040015173ffffffffffffffffffffffffffffffffffffffff16141562000952576040517f08c379a0000000000000000000000000000000000000000000000000000000008152600401620009499062001e0a565b60405180910390fd5b6000600260008973ffffffffffffffffffffffffffffffffffffffff1673ffffffffffffffffffffffffffffffffffffffff1681526020019081526020016000206000888152602001908152602001600020604051806060016040529081600082015481526020016001820160009054906101000a900460ff1660ff1660ff1681526020016001820160019054906101000a900473ffffffffffffffffffffffffffffffffffffffff1673ffffffffffffffffffffffffffffffffffffffff1673ffffffffffffffffffffffffffffffffffffffff16815250509050600085826000015162000a42919062001f72565b9050600360009054906101000a900473ffffffffffffffffffffffffffffffffffffffff1673ffffffffffffffffffffffffffffffffffffffff166323b872dd88600460009054906101000a900473ffffffffffffffffffffffffffffffffffffffff16846040518463ffffffff1660e01b815260040162000ac79392919062001b7f565b602060405180830381600087803b15801562000ae257600080fd5b505af115801562000af7573d6000803e3d6000fd5b505050506040513d601f19601f8201168201806040525081019062000b1d919062001801565b62000b5f576040517f08c379a000000000000000000000000000000000000000000000000000000000815260040162000b569062001e70565b60405180910390fd5b816040015173ffffffffffffffffffffffffffffffffffffffff166340c10f1988670de0b6b3a76400008962000b96919062001f72565b6040518363ffffffff1660e01b815260040162000bb592919062001c2b565b600060405180830381600087803b15801562000bd057600080fd5b505af115801562000be5573d6000803e3d6000fd5b505050507f6fae8430bb634204642d65b7a4bdfc014fbfa91875a94cfef0834aec170771ee8989898985876040015160405162000c289695949392919062001c58565b60405180910390a1505050505050505050565b6002602052816000526040600020602052806000526040600020600091509150508060000154908060010160009054906101000a900460ff16908060010160019054906101000a900473ffffffffffffffffffffffffffffffffffffffff16905083565b600083836000600260008473ffffffffffffffffffffffffffffffffffffffff1673ffffffffffffffffffffffffffffffffffffffff1681526020019081526020016000206000838152602001908152602001600020604051806060016040529081600082015481526020016001820160009054906101000a900460ff1660ff1660ff1681526020016001820160019054906101000a900473ffffffffffffffffffffffffffffffffffffffff1673ffffffffffffffffffffffffffffffffffffffff1673ffffffffffffffffffffffffffffffffffffffff16815250509050600073ffffffffffffffffffffffffffffffffffffffff16816040015173ffffffffffffffffffffffffffffffffffffffff16141562000df6576040517f08c379a000000000000000000000000000000000000000000000000000000000815260040162000ded9062001e0a565b60405180910390fd5b6000600260008973ffffffffffffffffffffffffffffffffffffffff1673ffffffffffffffffffffffffffffffffffffffff1681526020019081526020016000206000888152602001908152602001600020604051806060016040529081600082015481526020016001820160009054906101000a900460ff1660ff1660ff1681526020016001820160019054906101000a900473ffffffffffffffffffffffffffffffffffffffff1673ffffffffffffffffffffffffffffffffffffffff1673ffffffffffffffffffffffffffffffffffffffff16815250509050670de0b6b3a7640000816040015173ffffffffffffffffffffffffffffffffffffffff166370a08231886040518263ffffffff1660e01b815260040162000f1a919062001b62565b60206040518083038186803b15801562000f3357600080fd5b505afa15801562000f48573d6000803e3d6000fd5b505050506040513d601f19601f8201168201806040525081019062000f6e919062001884565b10159450505050509392505050565b81816000600260008473ffffffffffffffffffffffffffffffffffffffff1673ffffffffffffffffffffffffffffffffffffffff1681526020019081526020016000206000838152602001908152602001600020604051806060016040529081600082015481526020016001820160009054906101000a900460ff1660ff1660ff1681526020016001820160019054906101000a900473ffffffffffffffffffffffffffffffffffffffff1673ffffffffffffffffffffffffffffffffffffffff1673ffffffffffffffffffffffffffffffffffffffff16815250509050600073ffffffffffffffffffffffffffffffffffffffff16816040015173ffffffffffffffffffffffffffffffffffffffff161415620010d2576040517f08c379a0000000000000000000000000000000000000000000000000000000008152600401620010c99062001e0a565b60405180910390fd5b84843373ffffffffffffffffffffffffffffffffffffffff168273ffffffffffffffffffffffffffffffffffffffff16636352211e836040518263ffffffff1660e01b815260040162001126919062001e92565b60206040518083038186803b1580156200113f57600080fd5b505afa15801562001154573d6000803e3d6000fd5b505050506040513d601f19601f820116820180604052508101906200117a919062001539565b73ffffffffffffffffffffffffffffffffffffffff1614620011d3576040517f08c379a0000000000000000000000000000000000000000000000000000000008152600401620011ca9062001e2c565b60405180910390fd5b600260008873ffffffffffffffffffffffffffffffffffffffff1673ffffffffffffffffffffffffffffffffffffffff16815260200190815260200160002060008781526020019081526020016000206000808201600090556001820160006101000a81549060ff02191690556001820160016101000a81549073ffffffffffffffffffffffffffffffffffffffff021916905550507fa20455ca4b30865bf505833372c8e36978882830fc9bdabecc93469750fc55e387876040516200129c92919062001c2b565b60405180910390a150505050505050565b6000600160009054906101000a900473ffffffffffffffffffffffffffffffffffffffff1673ffffffffffffffffffffffffffffffffffffffff16630c6626428b8b8b8b8b8b8b6040518863ffffffff1660e01b815260040162001318979695949392919062001bbc565b602060405180830381600087803b1580156200133357600080fd5b505af115801562001348573d6000803e3d6000fd5b505050506040513d601f19601f820116820180604052508101906200136e919062001884565b9050620013a1600160009054906101000a900473ffffffffffffffffffffffffffffffffffffffff16828c86866200027b565b50505050505050505050565b611eee80620023c283390190565b6000620013d2620013cc8462001f15565b62001eec565b905082815260208101848484011115620013f157620013f062002203565b5b620013fe848285620020bb565b509392505050565b60008135905062001417816200233f565b92915050565b6000815190506200142e816200233f565b92915050565b600081519050620014458162002359565b92915050565b6000813590506200145c8162002373565b92915050565b60008083601f8401126200147b576200147a620021f9565b5b8235905067ffffffffffffffff8111156200149b576200149a620021f4565b5b602083019150836001820283011115620014ba57620014b9620021fe565b5b9250929050565b600082601f830112620014d957620014d8620021f9565b5b8151620014eb848260208601620013bb565b91505092915050565b60008135905062001505816200238d565b92915050565b6000815190506200151c816200238d565b92915050565b6000813590506200153381620023a7565b92915050565b6000602082840312156200155257620015516200220d565b5b600062001562848285016200141d565b91505092915050565b600080600080600080600080600060e08a8c03121562001590576200158f6200220d565b5b6000620015a08c828d0162001406565b99505060208a013567ffffffffffffffff811115620015c457620015c362002208565b5b620015d28c828d0162001462565b985098505060408a013567ffffffffffffffff811115620015f857620015f762002208565b5b620016068c828d0162001462565b965096505060606200161b8c828d016200144b565b94505060806200162e8c828d016200144b565b93505060a0620016418c828d01620014f4565b92505060c0620016548c828d0162001522565b9150509295985092959850929598565b600080604083850312156200167e576200167d6200220d565b5b60006200168e8582860162001406565b9250506020620016a185828601620014f4565b9150509250929050565b600080600060608486031215620016c757620016c66200220d565b5b6000620016d78682870162001406565b9350506020620016ea86828701620014f4565b9250506040620016fd8682870162001406565b9150509250925092565b600080600080608085870312156200172457620017236200220d565b5b6000620017348782880162001406565b94505060206200174787828801620014f4565b93505060406200175a8782880162001406565b92505060606200176d87828801620014f4565b91505092959194509250565b600080600080600060a086880312156200179857620017976200220d565b5b6000620017a88882890162001406565b9550506020620017bb88828901620014f4565b9450506040620017ce8882890162001406565b9350506060620017e188828901620014f4565b9250506080620017f48882890162001522565b9150509295509295909350565b6000602082840312156200181a57620018196200220d565b5b60006200182a8482850162001434565b91505092915050565b6000602082840312156200184c576200184b6200220d565b5b600082015167ffffffffffffffff8111156200186d576200186c62002208565b5b6200187b84828501620014c1565b91505092915050565b6000602082840312156200189d576200189c6200220d565b5b6000620018ad848285016200150b565b91505092915050565b620018c18162001fd3565b82525050565b620018d28162001fe7565b82525050565b620018e38162001ff3565b82525050565b620018f48162002034565b82525050565b62001905816200205c565b82525050565b620019168162002084565b82525050565b60006200192a838562001f56565b935062001939838584620020ac565b620019448362002212565b840190509392505050565b60006200195c8262001f4b565b62001968818562001f56565b93506200197a818560208601620020bb565b620019858162002212565b840191505092915050565b60006200199d8262001f4b565b620019a9818562001f67565b9350620019bb818560208601620020bb565b80840191505092915050565b6000620019d6601c8362001f56565b9150620019e38262002223565b602082019050919050565b6000620019fd60138362001f56565b915062001a0a826200224c565b602082019050919050565b600062001a2460018362001f67565b915062001a318262002275565b600182019050919050565b600062001a4b60208362001f56565b915062001a58826200229e565b602082019050919050565b600062001a7260218362001f56565b915062001a7f82620022c7565b604082019050919050565b600062001a9960108362001f56565b915062001aa68262002316565b602082019050919050565b62001abc816200201d565b82525050565b62001ad762001ad1826200201d565b6200215d565b82525050565b62001ae88162002027565b82525050565b600062001afc828662001990565b915062001b0a828562001990565b915062001b18828462001ac2565b602082019150819050949350505050565b600062001b368262001a15565b915062001b44828562001990565b915062001b52828462001ac2565b6020820191508190509392505050565b600060208201905062001b796000830184620018b6565b92915050565b600060608201905062001b966000830186620018b6565b62001ba56020830185620018b6565b62001bb4604083018462001ab1565b949350505050565b600060a08201905062001bd3600083018a620018b6565b818103602083015262001be881888a6200191c565b9050818103604083015262001bff8186886200191c565b905062001c106060830185620018d8565b62001c1f6080830184620018d8565b98975050505050505050565b600060408201905062001c426000830185620018b6565b62001c51602083018462001ab1565b9392505050565b600060c08201905062001c6f6000830189620018b6565b62001c7e602083018862001ab1565b62001c8d6040830187620018b6565b62001c9c606083018662001ab1565b62001cab608083018562001ab1565b62001cba60a0830184620018b6565b979650505050505050565b600060c08201905062001cdc6000830189620018b6565b62001ceb602083018862001ab1565b62001cfa6040830187620018b6565b62001d09606083018662001ab1565b62001d18608083018562001add565b62001d2760a0830184620018b6565b979650505050505050565b600060208201905062001d496000830184620018c7565b92915050565b600060208201905062001d666000830184620018fa565b92915050565b600060208201905062001d8360008301846200190b565b92915050565b6000602082019050818103600083015262001da581846200194f565b905092915050565b6000604082019050818103600083015262001dc981856200194f565b9050818103602083015262001ddf81846200194f565b90509392505050565b6000602082019050818103600083015262001e0381620019c7565b9050919050565b6000602082019050818103600083015262001e2581620019ee565b9050919050565b6000602082019050818103600083015262001e478162001a3c565b9050919050565b6000602082019050818103600083015262001e698162001a63565b9050919050565b6000602082019050818103600083015262001e8b8162001a8a565b9050919050565b600060208201905062001ea9600083018462001ab1565b92915050565b600060608201905062001ec6600083018662001ab1565b62001ed5602083018562001add565b62001ee46040830184620018e9565b949350505050565b600062001ef862001f0b565b905062001f06828262002127565b919050565b6000604051905090565b600067ffffffffffffffff82111562001f335762001f32620021c5565b5b62001f3e8262002212565b9050602081019050919050565b600081519050919050565b600082825260208201905092915050565b600081905092915050565b600062001f7f826200201d565b915062001f8c836200201d565b9250817fffffffffffffffffffffffffffffffffffffffffffffffffffffffffffffffff048311821515161562001fc85762001fc762002167565b5b828202905092915050565b600062001fe08262001ffd565b9050919050565b60008115159050919050565b6000819050919050565b600073ffffffffffffffffffffffffffffffffffffffff82169050919050565b6000819050919050565b600060ff82169050919050565b6000620020418262002048565b9050919050565b6000620020558262001ffd565b9050919050565b6000620020698262002070565b9050919050565b60006200207d8262001ffd565b9050919050565b6000620020918262002098565b9050919050565b6000620020a58262001ffd565b9050919050565b82818337600083830152505050565b60005b83811015620020db578082015181840152602081019050620020be565b83811115620020eb576000848401525b50505050565b600060028204905060018216806200210a57607f821691505b6020821081141562002121576200212062002196565b5b50919050565b620021328262002212565b810181811067ffffffffffffffff82111715620021545762002153620021c5565b5b80604052505050565b6000819050919050565b7f4e487b7100000000000000000000000000000000000000000000000000000000600052601160045260246000fd5b7f4e487b7100000000000000000000000000000000000000000000000000000000600052602260045260246000fd5b7f4e487b7100000000000000000000000000000000000000000000000000000000600052604160045260246000fd5b600080fd5b600080fd5b600080fd5b600080fd5b600080fd5b600080fd5b6000601f19601f8301169050919050565b7f52656769737472616e7420646f6573206e6f74206f776e204e46542e00000000600082015250565b7f4e4654206e6f7420726567697374657265642e00000000000000000000000000600082015250565b7f6c00000000000000000000000000000000000000000000000000000000000000600082015250565b7f4d6573736167652073656e64657220646f6573206e6f74206f776e204e46542e600082015250565b7f736861726550657263656e746167652067726561746572207468616e2031303060008201527f2e00000000000000000000000000000000000000000000000000000000000000602082015250565b7f5472616e73666572206661696c65642e00000000000000000000000000000000600082015250565b6200234a8162001fd3565b81146200235657600080fd5b50565b620023648162001fe7565b81146200237057600080fd5b50565b6200237e8162001ff3565b81146200238a57600080fd5b50565b62002398816200201d565b8114620023a457600080fd5b50565b620023b28162002027565b8114620023be57600080fd5b5056fe60806040523480156200001157600080fd5b5060405162001eee38038062001eee83398181016040528101906200003791906200028f565b8181620000596200004d6200009560201b60201c565b6200009d60201b60201c565b81600490805190602001906200007192919062000161565b5080600590805190602001906200008a92919062000161565b505050505062000498565b600033905090565b60008060009054906101000a900473ffffffffffffffffffffffffffffffffffffffff169050816000806101000a81548173ffffffffffffffffffffffffffffffffffffffff021916908373ffffffffffffffffffffffffffffffffffffffff1602179055508173ffffffffffffffffffffffffffffffffffffffff168173ffffffffffffffffffffffffffffffffffffffff167f8be0079c531659141344cd1fd0a4f28419497f9722a3daafe3b4186f6b6457e060405160405180910390a35050565b8280546200016f90620003a9565b90600052602060002090601f016020900481019282620001935760008555620001df565b82601f10620001ae57805160ff1916838001178555620001df565b82800160010185558215620001df579182015b82811115620001de578251825591602001919060010190620001c1565b5b509050620001ee9190620001f2565b5090565b5b808211156200020d576000816000905550600101620001f3565b5090565b60006200022862000222846200033d565b62000314565b90508281526020810184848401111562000247576200024662000478565b5b6200025484828562000373565b509392505050565b600082601f83011262000274576200027362000473565b5b81516200028684826020860162000211565b91505092915050565b60008060408385031215620002a957620002a862000482565b5b600083015167ffffffffffffffff811115620002ca57620002c96200047d565b5b620002d8858286016200025c565b925050602083015167ffffffffffffffff811115620002fc57620002fb6200047d565b5b6200030a858286016200025c565b9150509250929050565b60006200032062000333565b90506200032e8282620003df565b919050565b6000604051905090565b600067ffffffffffffffff8211156200035b576200035a62000444565b5b620003668262000487565b9050602081019050919050565b60005b838110156200039357808201518184015260208101905062000376565b83811115620003a3576000848401525b50505050565b60006002820490506001821680620003c257607f821691505b60208210811415620003d957620003d862000415565b5b50919050565b620003ea8262000487565b810181811067ffffffffffffffff821117156200040c576200040b62000444565b5b80604052505050565b7f4e487b7100000000000000000000000000000000000000000000000000000000600052602260045260246000fd5b7f4e487b7100000000000000000000000000000000000000000000000000000000600052604160045260246000fd5b600080fd5b600080fd5b600080fd5b600080fd5b6000601f19601f8301169050919050565b611a4680620004a86000396000f3fe608060405234801561001057600080fd5b50600436106100f55760003560e01c806370a0823111610097578063a457c2d711610066578063a457c2d714610276578063a9059cbb146102a6578063dd62ed3e146102d6578063f2fde38b14610306576100f5565b806370a0823114610200578063715018a6146102305780638da5cb5b1461023a57806395d89b4114610258576100f5565b806323b872dd116100d357806323b872dd14610166578063313ce5671461019657806339509351146101b457806340c10f19146101e4576100f5565b806306fdde03146100fa578063095ea7b31461011857806318160ddd14610148575b600080fd5b610102610322565b60405161010f91906113e0565b60405180910390f35b610132600480360381019061012d9190611197565b6103b4565b60405161013f91906113c5565b60405180910390f35b6101506103d2565b60405161015d9190611542565b60405180910390f35b610180600480360381019061017b9190611144565b6103dc565b60405161018d91906113c5565b60405180910390f35b61019e6104d4565b6040516101ab919061155d565b60405180910390f35b6101ce60048036038101906101c99190611197565b6104dd565b6040516101db91906113c5565b60405180910390f35b6101fe60048036038101906101f99190611197565b610589565b005b61021a600480360381019061021591906110d7565b610613565b6040516102279190611542565b60405180910390f35b61023861065c565b005b6102426106e4565b60405161024f91906113aa565b60405180910390f35b61026061070d565b60405161026d91906113e0565b60405180910390f35b610290600480360381019061028b9190611197565b61079f565b60405161029d91906113c5565b60405180910390f35b6102c060048036038101906102bb9190611197565b61088a565b6040516102cd91906113c5565b60405180910390f35b6102f060048036038101906102eb9190611104565b6108a8565b6040516102fd9190611542565b60405180910390f35b610320600480360381019061031b91906110d7565b61092f565b005b60606004805461033190611672565b80601f016020809104026020016040519081016040528092919081815260200182805461035d90611672565b80156103aa5780601f1061037f576101008083540402835291602001916103aa565b820191906000526020600020905b81548152906001019060200180831161038d57829003601f168201915b5050505050905090565b60006103c86103c1610a27565b8484610a2f565b6001905092915050565b6000600354905090565b60006103e9848484610bfa565b6000600260008673ffffffffffffffffffffffffffffffffffffffff1673ffffffffffffffffffffffffffffffffffffffff1681526020019081526020016000206000610434610a27565b73ffffffffffffffffffffffffffffffffffffffff1673ffffffffffffffffffffffffffffffffffffffff168152602001908152602001600020549050828110156104b4576040517f08c379a00000000000000000000000000000000000000000000000000000000081526004016104ab90611482565b60405180910390fd5b6104c8856104c0610a27565b858403610a2f565b60019150509392505050565b60006012905090565b600061057f6104ea610a27565b8484600260006104f8610a27565b73ffffffffffffffffffffffffffffffffffffffff1673ffffffffffffffffffffffffffffffffffffffff16815260200190815260200160002060008873ffffffffffffffffffffffffffffffffffffffff1673ffffffffffffffffffffffffffffffffffffffff1681526020019081526020016000205461057a9190611594565b610a2f565b6001905092915050565b610591610a27565b73ffffffffffffffffffffffffffffffffffffffff166105af6106e4565b73ffffffffffffffffffffffffffffffffffffffff1614610605576040517f08c379a00000000000000000000000000000000000000000000000000000000081526004016105fc906114a2565b60405180910390fd5b61060f8282610e7e565b5050565b6000600160008373ffffffffffffffffffffffffffffffffffffffff1673ffffffffffffffffffffffffffffffffffffffff168152602001908152602001600020549050919050565b610664610a27565b73ffffffffffffffffffffffffffffffffffffffff166106826106e4565b73ffffffffffffffffffffffffffffffffffffffff16146106d8576040517f08c379a00000000000000000000000000000000000000000000000000000000081526004016106cf906114a2565b60405180910390fd5b6106e26000610fdf565b565b60008060009054906101000a900473ffffffffffffffffffffffffffffffffffffffff16905090565b60606005805461071c90611672565b80601f016020809104026020016040519081016040528092919081815260200182805461074890611672565b80156107955780601f1061076a57610100808354040283529160200191610795565b820191906000526020600020905b81548152906001019060200180831161077857829003601f168201915b5050505050905090565b600080600260006107ae610a27565b73ffffffffffffffffffffffffffffffffffffffff1673ffffffffffffffffffffffffffffffffffffffff16815260200190815260200160002060008573ffffffffffffffffffffffffffffffffffffffff1673ffffffffffffffffffffffffffffffffffffffff1681526020019081526020016000205490508281101561086b576040517f08c379a000000000000000000000000000000000000000000000000000000000815260040161086290611502565b60405180910390fd5b61087f610876610a27565b85858403610a2f565b600191505092915050565b600061089e610897610a27565b8484610bfa565b6001905092915050565b6000600260008473ffffffffffffffffffffffffffffffffffffffff1673ffffffffffffffffffffffffffffffffffffffff16815260200190815260200160002060008373ffffffffffffffffffffffffffffffffffffffff1673ffffffffffffffffffffffffffffffffffffffff16815260200190815260200160002054905092915050565b610937610a27565b73ffffffffffffffffffffffffffffffffffffffff166109556106e4565b73ffffffffffffffffffffffffffffffffffffffff16146109ab576040517f08c379a00000000000000000000000000000000000000000000000000000000081526004016109a2906114a2565b60405180910390fd5b600073ffffffffffffffffffffffffffffffffffffffff168173ffffffffffffffffffffffffffffffffffffffff161415610a1b576040517f08c379a0000000000000000000000000000000000000000000000000000000008152600401610a1290611422565b60405180910390fd5b610a2481610fdf565b50565b600033905090565b600073ffffffffffffffffffffffffffffffffffffffff168373ffffffffffffffffffffffffffffffffffffffff161415610a9f576040517f08c379a0000000000000000000000000000000000000000000000000000000008152600401610a96906114e2565b60405180910390fd5b600073ffffffffffffffffffffffffffffffffffffffff168273ffffffffffffffffffffffffffffffffffffffff161415610b0f576040517f08c379a0000000000000000000000000000000000000000000000000000000008152600401610b0690611442565b60405180910390fd5b80600260008573ffffffffffffffffffffffffffffffffffffffff1673ffffffffffffffffffffffffffffffffffffffff16815260200190815260200160002060008473ffffffffffffffffffffffffffffffffffffffff1673ffffffffffffffffffffffffffffffffffffffff168152602001908152602001600020819055508173ffffffffffffffffffffffffffffffffffffffff168373ffffffffffffffffffffffffffffffffffffffff167f8c5be1e5ebec7d5bd14f71427d1e84f3dd0314c0f7b2291e5b200ac8c7c3b92583604051610bed9190611542565b60405180910390a3505050565b600073ffffffffffffffffffffffffffffffffffffffff168373ffffffffffffffffffffffffffffffffffffffff161415610c6a576040517f08c379a0000000000000000000000000000000000000000000000000000000008152600401610c61906114c2565b60405180910390fd5b600073ffffffffffffffffffffffffffffffffffffffff168273ffffffffffffffffffffffffffffffffffffffff161415610cda576040517f08c379a0000000000000000000000000000000000000000000000000000000008152600401610cd190611402565b60405180910390fd5b610ce58383836110a3565b6000600160008573ffffffffffffffffffffffffffffffffffffffff1673ffffffffffffffffffffffffffffffffffffffff16815260200190815260200160002054905081811015610d6c576040517f08c379a0000000000000000000000000000000000000000000000000000000008152600401610d6390611462565b60405180910390fd5b818103600160008673ffffffffffffffffffffffffffffffffffffffff1673ffffffffffffffffffffffffffffffffffffffff1681526020019081526020016000208190555081600160008573ffffffffffffffffffffffffffffffffffffffff1673ffffffffffffffffffffffffffffffffffffffff1681526020019081526020016000206000828254610e019190611594565b925050819055508273ffffffffffffffffffffffffffffffffffffffff168473ffffffffffffffffffffffffffffffffffffffff167fddf252ad1be2c89b69c2b068fc378daa952ba7f163c4a11628f55a4df523b3ef84604051610e659190611542565b60405180910390a3610e788484846110a8565b50505050565b600073ffffffffffffffffffffffffffffffffffffffff168273ffffffffffffffffffffffffffffffffffffffff161415610eee576040517f08c379a0000000000000000000000000000000000000000000000000000000008152600401610ee590611522565b60405180910390fd5b610efa600083836110a3565b8060036000828254610f0c9190611594565b9250508190555080600160008473ffffffffffffffffffffffffffffffffffffffff1673ffffffffffffffffffffffffffffffffffffffff1681526020019081526020016000206000828254610f629190611594565b925050819055508173ffffffffffffffffffffffffffffffffffffffff16600073ffffffffffffffffffffffffffffffffffffffff167fddf252ad1be2c89b69c2b068fc378daa952ba7f163c4a11628f55a4df523b3ef83604051610fc79190611542565b60405180910390a3610fdb600083836110a8565b5050565b60008060009054906101000a900473ffffffffffffffffffffffffffffffffffffffff169050816000806101000a81548173ffffffffffffffffffffffffffffffffffffffff021916908373ffffffffffffffffffffffffffffffffffffffff1602179055508173ffffffffffffffffffffffffffffffffffffffff168173ffffffffffffffffffffffffffffffffffffffff167f8be0079c531659141344cd1fd0a4f28419497f9722a3daafe3b4186f6b6457e060405160405180910390a35050565b505050565b505050565b6000813590506110bc816119e2565b92915050565b6000813590506110d1816119f9565b92915050565b6000602082840312156110ed576110ec611702565b5b60006110fb848285016110ad565b91505092915050565b6000806040838503121561111b5761111a611702565b5b6000611129858286016110ad565b925050602061113a858286016110ad565b9150509250929050565b60008060006060848603121561115d5761115c611702565b5b600061116b868287016110ad565b935050602061117c868287016110ad565b925050604061118d868287016110c2565b9150509250925092565b600080604083850312156111ae576111ad611702565b5b60006111bc858286016110ad565b92505060206111cd858286016110c2565b9150509250929050565b6111e0816115ea565b82525050565b6111ef816115fc565b82525050565b600061120082611578565b61120a8185611583565b935061121a81856020860161163f565b61122381611707565b840191505092915050565b600061123b602383611583565b915061124682611718565b604082019050919050565b600061125e602683611583565b915061126982611767565b604082019050919050565b6000611281602283611583565b915061128c826117b6565b604082019050919050565b60006112a4602683611583565b91506112af82611805565b604082019050919050565b60006112c7602883611583565b91506112d282611854565b604082019050919050565b60006112ea602083611583565b91506112f5826118a3565b602082019050919050565b600061130d602583611583565b9150611318826118cc565b604082019050919050565b6000611330602483611583565b915061133b8261191b565b604082019050919050565b6000611353602583611583565b915061135e8261196a565b604082019050919050565b6000611376601f83611583565b9150611381826119b9565b602082019050919050565b61139581611628565b82525050565b6113a481611632565b82525050565b60006020820190506113bf60008301846111d7565b92915050565b60006020820190506113da60008301846111e6565b92915050565b600060208201905081810360008301526113fa81846111f5565b905092915050565b6000602082019050818103600083015261141b8161122e565b9050919050565b6000602082019050818103600083015261143b81611251565b9050919050565b6000602082019050818103600083015261145b81611274565b9050919050565b6000602082019050818103600083015261147b81611297565b9050919050565b6000602082019050818103600083015261149b816112ba565b9050919050565b600060208201905081810360008301526114bb816112dd565b9050919050565b600060208201905081810360008301526114db81611300565b9050919050565b600060208201905081810360008301526114fb81611323565b9050919050565b6000602082019050818103600083015261151b81611346565b9050919050565b6000602082019050818103600083015261153b81611369565b9050919050565b6000602082019050611557600083018461138c565b92915050565b6000602082019050611572600083018461139b565b92915050565b600081519050919050565b600082825260208201905092915050565b600061159f82611628565b91506115aa83611628565b9250827fffffffffffffffffffffffffffffffffffffffffffffffffffffffffffffffff038211156115df576115de6116a4565b5b828201905092915050565b60006115f582611608565b9050919050565b60008115159050919050565b600073ffffffffffffffffffffffffffffffffffffffff82169050919050565b6000819050919050565b600060ff82169050919050565b60005b8381101561165d578082015181840152602081019050611642565b8381111561166c576000848401525b50505050565b6000600282049050600182168061168a57607f821691505b6020821081141561169e5761169d6116d3565b5b50919050565b7f4e487b7100000000000000000000000000000000000000000000000000000000600052601160045260246000fd5b7f4e487b7100000000000000000000000000000000000000000000000000000000600052602260045260246000fd5b600080fd5b6000601f19601f8301169050919050565b7f45524332303a207472616e7366657220746f20746865207a65726f206164647260008201527f6573730000000000000000000000000000000000000000000000000000000000602082015250565b7f4f776e61626c653a206e6577206f776e657220697320746865207a65726f206160008201527f6464726573730000000000000000000000000000000000000000000000000000602082015250565b7f45524332303a20617070726f766520746f20746865207a65726f20616464726560008201527f7373000000000000000000000000000000000000000000000000000000000000602082015250565b7f45524332303a207472616e7366657220616d6f756e742065786365656473206260008201527f616c616e63650000000000000000000000000000000000000000000000000000602082015250565b7f45524332303a207472616e7366657220616d6f756e742065786365656473206160008201527f6c6c6f77616e6365000000000000000000000000000000000000000000000000602082015250565b7f4f776e61626c653a2063616c6c6572206973206e6f7420746865206f776e6572600082015250565b7f45524332303a207472616e736665722066726f6d20746865207a65726f20616460008201527f6472657373000000000000000000000000000000000000000000000000000000602082015250565b7f45524332303a20617070726f76652066726f6d20746865207a65726f2061646460008201527f7265737300000000000000000000000000000000000000000000000000000000602082015250565b7f45524332303a2064656372656173656420616c6c6f77616e63652062656c6f7760008201527f207a65726f000000000000000000000000000000000000000000000000000000602082015250565b7f45524332303a206d696e7420746f20746865207a65726f206164647265737300600082015250565b6119eb816115ea565b81146119f657600080fd5b50565b611a0281611628565b8114611a0d57600080fd5b5056fea2646970667358221220464bfedc9d3b29c3e86e072b597cb3a318cec326bc21eb6c2ea16612da5d186264736f6c63430008050033a2646970667358221220b405e7aaa8e42a157885d09da9d3ba23e5e845d242a2706fc476254c9700a29d64736f6c63430008050033",
  "linkReferences": {},
  "deployedLinkReferences": {}
}