{
  "_format": "hh-sol-artifact-1",
  "contractName": "Squad",
  "sourceName": "contracts/Squad.sol",
  "abi": [
    {
      "inputs": [
        {
          "internalType": "address[]",
          "name": "_rightsManagers",
          "type": "address[]"
        },
        {
          "internalType": "uint256",
          "name": "_fee",
          "type": "uint256"
        }
      ],
      "stateMutability": "nonpayable",
      "type": "constructor"
    },
    {
      "anonymous": false,
      "inputs": [],
      "name": "AddRemoveRightsManager",
      "type": "event"
    },
    {
      "anonymous": false,
      "inputs": [
        {
          "components": [
            {
              "internalType": "uint256",
              "name": "id",
              "type": "uint256"
            },
            {
              "internalType": "uint256",
              "name": "ownerShare",
              "type": "uint256"
            },
            {
              "internalType": "address[]",
              "name": "weightsAddresses",
              "type": "address[]"
            },
            {
              "internalType": "uint256[]",
              "name": "weightsIds",
              "type": "uint256[]"
            },
            {
              "internalType": "uint256[]",
              "name": "weights",
              "type": "uint256[]"
            },
            {
              "internalType": "address[]",
              "name": "rightsAddresses",
              "type": "address[]"
            },
            {
              "components": [
                {
                  "internalType": "address",
                  "name": "token",
                  "type": "address"
                },
                {
                  "internalType": "uint256",
                  "name": "amount",
                  "type": "uint256"
                }
              ],
              "internalType": "struct Squad.RightsParams[]",
              "name": "rights",
              "type": "tuple[]"
            }
          ],
          "indexed": false,
          "internalType": "struct Squad.License",
          "name": "license",
          "type": "tuple"
        }
      ],
      "name": "NFTRegistered",
      "type": "event"
    },
    {
      "anonymous": false,
      "inputs": [
        {
          "indexed": true,
          "internalType": "address",
          "name": "previousOwner",
          "type": "address"
        },
        {
          "indexed": true,
          "internalType": "address",
          "name": "newOwner",
          "type": "address"
        }
      ],
      "name": "OwnershipTransferred",
      "type": "event"
    },
    {
      "anonymous": false,
      "inputs": [
        {
          "indexed": false,
          "internalType": "address",
          "name": "asset",
          "type": "address"
        },
        {
          "indexed": false,
          "internalType": "uint256",
          "name": "amount",
          "type": "uint256"
        },
        {
          "indexed": false,
          "internalType": "address",
          "name": "nftAdress",
          "type": "address"
        },
        {
          "indexed": false,
          "internalType": "uint256",
          "name": "nftId",
          "type": "uint256"
        }
      ],
      "name": "PaymentAdded",
      "type": "event"
    },
    {
      "anonymous": false,
      "inputs": [],
      "name": "SetFee",
      "type": "event"
    },
    {
      "anonymous": false,
      "inputs": [],
      "name": "Withdrawal",
      "type": "event"
    },
    {
      "inputs": [
        {
          "internalType": "address",
          "name": "asset",
          "type": "address"
        },
        {
          "internalType": "uint256",
          "name": "amount",
          "type": "uint256"
        },
        {
          "internalType": "address",
          "name": "nftAddress",
          "type": "address"
        },
        {
          "internalType": "uint256",
          "name": "nftId",
          "type": "uint256"
        }
      ],
      "name": "addPayment",
      "outputs": [],
      "stateMutability": "nonpayable",
      "type": "function"
    },
    {
      "inputs": [],
      "name": "addRemoveRightsManager",
      "outputs": [],
      "stateMutability": "nonpayable",
      "type": "function"
    },
    {
      "inputs": [
        {
          "internalType": "address",
          "name": "",
          "type": "address"
        }
      ],
      "name": "ethBalances",
      "outputs": [
        {
          "internalType": "uint256",
          "name": "",
          "type": "uint256"
        }
      ],
      "stateMutability": "view",
      "type": "function"
    },
    {
      "inputs": [],
      "name": "fee",
      "outputs": [
        {
          "internalType": "uint256",
          "name": "",
          "type": "uint256"
        }
      ],
      "stateMutability": "view",
      "type": "function"
    },
    {
      "inputs": [
        {
          "internalType": "address",
          "name": "",
          "type": "address"
        },
        {
          "internalType": "uint256",
          "name": "",
          "type": "uint256"
        }
      ],
      "name": "licenses",
      "outputs": [
        {
          "internalType": "uint256",
          "name": "id",
          "type": "uint256"
        },
        {
          "internalType": "uint256",
          "name": "ownerShare",
          "type": "uint256"
        }
      ],
      "stateMutability": "view",
      "type": "function"
    },
    {
      "inputs": [],
      "name": "owner",
      "outputs": [
        {
          "internalType": "address",
          "name": "",
          "type": "address"
        }
      ],
      "stateMutability": "view",
      "type": "function"
    },
    {
      "inputs": [
        {
          "internalType": "address",
          "name": "nftAddress",
          "type": "address"
        },
        {
          "internalType": "uint256",
          "name": "nftId",
          "type": "uint256"
        },
        {
          "internalType": "uint256",
          "name": "ownerShare",
          "type": "uint256"
        },
        {
          "internalType": "address[]",
          "name": "weightsAddresses",
          "type": "address[]"
        },
        {
          "internalType": "uint256[]",
          "name": "weightsIds",
          "type": "uint256[]"
        },
        {
          "internalType": "uint256[]",
          "name": "weights",
          "type": "uint256[]"
        },
        {
          "internalType": "address[]",
          "name": "rightsAddresses",
          "type": "address[]"
        },
        {
          "internalType": "address[]",
          "name": "rightsTokens",
          "type": "address[]"
        },
        {
          "internalType": "uint256[]",
          "name": "rightsAmounts",
          "type": "uint256[]"
        }
      ],
      "name": "registerNFT",
      "outputs": [],
      "stateMutability": "nonpayable",
      "type": "function"
    },
    {
      "inputs": [],
      "name": "renounceOwnership",
      "outputs": [],
      "stateMutability": "nonpayable",
      "type": "function"
    },
    {
      "inputs": [
        {
          "internalType": "uint256",
          "name": "",
          "type": "uint256"
        }
      ],
      "name": "rightsManagers",
      "outputs": [
        {
          "internalType": "address",
          "name": "",
          "type": "address"
        }
      ],
      "stateMutability": "view",
      "type": "function"
    },
    {
      "inputs": [],
      "name": "setFee",
      "outputs": [],
      "stateMutability": "nonpayable",
      "type": "function"
    },
    {
      "inputs": [
        {
          "internalType": "uint256",
          "name": "",
          "type": "uint256"
        }
      ],
      "name": "tokenArray",
      "outputs": [
        {
          "internalType": "address",
          "name": "",
          "type": "address"
        }
      ],
      "stateMutability": "view",
      "type": "function"
    },
    {
      "inputs": [
        {
          "internalType": "address",
          "name": "",
          "type": "address"
        },
        {
          "internalType": "address",
          "name": "",
          "type": "address"
        }
      ],
      "name": "tokenBalances",
      "outputs": [
        {
          "internalType": "uint256",
          "name": "",
          "type": "uint256"
        }
      ],
      "stateMutability": "view",
      "type": "function"
    },
    {
      "inputs": [
        {
          "internalType": "address",
          "name": "",
          "type": "address"
        }
      ],
      "name": "tokenMapping",
      "outputs": [
        {
          "internalType": "bool",
          "name": "",
          "type": "bool"
        }
      ],
      "stateMutability": "view",
      "type": "function"
    },
    {
      "inputs": [
        {
          "internalType": "address",
          "name": "newOwner",
          "type": "address"
        }
      ],
      "name": "transferOwnership",
      "outputs": [],
      "stateMutability": "nonpayable",
      "type": "function"
    },
    {
      "inputs": [],
      "name": "withdraw",
      "outputs": [],
      "stateMutability": "nonpayable",
      "type": "function"
    }
  ],
  "bytecode": "0x60806040523480156200001157600080fd5b50604051620036f1380380620036f18339818101604052810190620000379190620002dd565b6000620000496200015760201b60201c565b9050806000806101000a81548173ffffffffffffffffffffffffffffffffffffffff021916908373ffffffffffffffffffffffffffffffffffffffff1602179055508073ffffffffffffffffffffffffffffffffffffffff16600073ffffffffffffffffffffffffffffffffffffffff167f8be0079c531659141344cd1fd0a4f28419497f9722a3daafe3b4186f6b6457e060405160405180910390a3506127108111156200012f576040517f08c379a000000000000000000000000000000000000000000000000000000000815260040162000126906200035e565b60405180910390fd5b8160019080519060200190620001479291906200015f565b5080600881905550505062000520565b600033905090565b828054828255906000526020600020908101928215620001db579160200282015b82811115620001da5782518260006101000a81548173ffffffffffffffffffffffffffffffffffffffff021916908373ffffffffffffffffffffffffffffffffffffffff1602179055509160200191906001019062000180565b5b509050620001ea9190620001ee565b5090565b5b8082111562000209576000816000905550600101620001ef565b5090565b6000620002246200021e84620003a9565b62000380565b905080838252602082019050828560208602820111156200024457600080fd5b60005b858110156200027857816200025d888262000282565b84526020840193506020830192505060018101905062000247565b5050509392505050565b6000815190506200029381620004ec565b92915050565b600082601f830112620002ab57600080fd5b8151620002bd8482602086016200020d565b91505092915050565b600081519050620002d78162000506565b92915050565b60008060408385031215620002f157600080fd5b600083015167ffffffffffffffff8111156200030c57600080fd5b6200031a8582860162000299565b92505060206200032d85828601620002c6565b9150509250929050565b600062000346602483620003d8565b915062000353826200049d565b604082019050919050565b60006020820190508181036000830152620003798162000337565b9050919050565b60006200038c6200039f565b90506200039a828262000427565b919050565b6000604051905090565b600067ffffffffffffffff821115620003c757620003c66200045d565b5b602082029050602081019050919050565b600082825260208201905092915050565b6000620003f682620003fd565b9050919050565b600073ffffffffffffffffffffffffffffffffffffffff82169050919050565b6000819050919050565b62000432826200048c565b810181811067ffffffffffffffff821117156200045457620004536200045d565b5b80604052505050565b7f4e487b7100000000000000000000000000000000000000000000000000000000600052604160045260246000fd5b6000601f19601f8301169050919050565b7f4665652067726561746572207468616e2031302c30303020626173697320706f60008201527f696e747300000000000000000000000000000000000000000000000000000000602082015250565b620004f781620003e9565b81146200050357600080fd5b50565b62000511816200041d565b81146200051d57600080fd5b50565b6131c180620005306000396000f3fe608060405234801561001057600080fd5b50600436106100f55760003560e01c80634dbf6c5a11610097578063ba27f50b11610066578063ba27f50b14610239578063ddca3f4314610269578063f2fde38b14610287578063faa32f5d146102a3576100f5565b80634dbf6c5a146101b1578063715018a6146101e15780637a0c7ec7146101eb5780638da5cb5b1461021b576100f5565b80632ded3227116100d35780632ded3227146101515780633ccfd60b1461015b5780633cfba0e3146101655780633eac0b5714610195576100f5565b80630be644ee146100fa5780630ee0176f1461012b5780632a13bae414610135575b600080fd5b610114600480360381019061010f9190612528565b6102d3565b604051610122929190612c28565b60405180910390f35b610133610304565b005b61014f600480360381019061014a91906125c7565b610382565b005b610159610500565b005b61016361057e565b005b61017f600480360381019061017a919061249a565b610580565b60405161018c9190612c0d565b60405180910390f35b6101af60048036038101906101aa9190612564565b610598565b005b6101cb60048036038101906101c691906124ec565b611203565b6040516101d89190612c0d565b60405180910390f35b6101e9611228565b005b61020560048036038101906102009190612746565b611362565b6040516102129190612ac7565b60405180910390f35b6102236113a1565b6040516102309190612ac7565b60405180910390f35b610253600480360381019061024e919061249a565b6113ca565b6040516102609190612b50565b60405180910390f35b6102716113ea565b60405161027e9190612c0d565b60405180910390f35b6102a1600480360381019061029c919061249a565b6113f0565b005b6102bd60048036038101906102b89190612746565b611599565b6040516102ca9190612ac7565b60405180910390f35b6002602052816000526040600020602052806000526040600020600091509150508060000154908060010154905082565b61030c6115d8565b73ffffffffffffffffffffffffffffffffffffffff1661032a6113a1565b73ffffffffffffffffffffffffffffffffffffffff1614610380576040517f08c379a000000000000000000000000000000000000000000000000000000000815260040161037790612bcb565b60405180910390fd5b565b88886127108911156103c9576040517f08c379a00000000000000000000000000000000000000000000000000000000081526004016103c090612b6b565b60405180910390fd5b6000600260008d73ffffffffffffffffffffffffffffffffffffffff1673ffffffffffffffffffffffffffffffffffffffff16815260200190815260200160002060008c815260200190815260200160002090508981600101819055506104318989896115e0565b83600201600085600301600087600401600086919050908051906020019061045a929190612226565b50859190509080519060200190610472929190612226565b5084919050908051906020019061048a929190612273565b5050505061049b8c8c888888611e8f565b60016003546104aa9190612d99565b60038190555060035481600001819055507f06f1a6a0037d91c61d2be186be759caa587eea8c54c326125c0e7d1dd58bf798816040516104ea9190612beb565b60405180910390a1505050505050505050505050565b6105086115d8565b73ffffffffffffffffffffffffffffffffffffffff166105266113a1565b73ffffffffffffffffffffffffffffffffffffffff161461057c576040517f08c379a000000000000000000000000000000000000000000000000000000000815260040161057390612bcb565b60405180910390fd5b565b565b60076020528060005260406000206000915090505481565b6000600260008473ffffffffffffffffffffffffffffffffffffffff1673ffffffffffffffffffffffffffffffffffffffff16815260200190815260200160002060008381526020019081526020016000206040518060e001604052908160008201548152602001600182015481526020016002820180548060200260200160405190810160405280929190818152602001828054801561068e57602002820191906000526020600020905b8160009054906101000a900473ffffffffffffffffffffffffffffffffffffffff1673ffffffffffffffffffffffffffffffffffffffff1681526020019060010190808311610644575b50505050508152602001600382018054806020026020016040519081016040528092919081815260200182805480156106e657602002820191906000526020600020905b8154815260200190600101908083116106d2575b505050505081526020016004820180548060200260200160405190810160405280929190818152602001828054801561073e57602002820191906000526020600020905b81548152602001906001019080831161072a575b50505050508152602001600582018054806020026020016040519081016040528092919081815260200182805480156107cc57602002820191906000526020600020905b8160009054906101000a900473ffffffffffffffffffffffffffffffffffffffff1673ffffffffffffffffffffffffffffffffffffffff1681526020019060010190808311610782575b5050505050815260200160068201805480602002602001604051908101604052809291908181526020016000905b8282101561088c57838290600052602060002090600202016040518060400160405290816000820160009054906101000a900473ffffffffffffffffffffffffffffffffffffffff1673ffffffffffffffffffffffffffffffffffffffff1673ffffffffffffffffffffffffffffffffffffffff168152602001600182015481525050815260200190600101906107fa565b505050508152505090506000816000015114156108de576040517f08c379a00000000000000000000000000000000000000000000000000000000081526004016108d590612bab565b60405180910390fd5b60008373ffffffffffffffffffffffffffffffffffffffff16636352211e846040518263ffffffff1660e01b81526004016109199190612c0d565b60206040518083038186803b15801561093157600080fd5b505afa158015610945573d6000803e3d6000fd5b505050506040513d601f19601f8201168201806040525081019061096991906124c3565b905060008561271084602001516109809190612def565b61098a9190612e20565b90506000818761099a9190612e7a565b9050600073ffffffffffffffffffffffffffffffffffffffff168873ffffffffffffffffffffffffffffffffffffffff161415610cc45760005b846080015151811015610c2557600085604001518281518110610a20577f4e487b7100000000000000000000000000000000000000000000000000000000600052603260045260246000fd5b602002602001015173ffffffffffffffffffffffffffffffffffffffff16636352211e87606001518481518110610a80577f4e487b7100000000000000000000000000000000000000000000000000000000600052603260045260246000fd5b60200260200101516040518263ffffffff1660e01b8152600401610aa49190612c0d565b60206040518083038186803b158015610abc57600080fd5b505afa158015610ad0573d6000803e3d6000fd5b505050506040513d601f19601f82011682018060405250810190610af491906124c3565b905060008361271088608001518581518110610b39577f4e487b7100000000000000000000000000000000000000000000000000000000600052603260045260246000fd5b60200260200101518960200151612710610b539190612e7a565b610b5d9190612e20565b610b679190612def565b610b719190612e20565b905080600760008473ffffffffffffffffffffffffffffffffffffffff1673ffffffffffffffffffffffffffffffffffffffff16815260200190815260200160002054610bbe9190612d99565b600760008473ffffffffffffffffffffffffffffffffffffffff1673ffffffffffffffffffffffffffffffffffffffff168152602001908152602001600020819055508084610c0d9190612e7a565b93505050600181610c1e9190612d99565b90506109d4565b508082600760008673ffffffffffffffffffffffffffffffffffffffff1673ffffffffffffffffffffffffffffffffffffffff16815260200190815260200160002054610c729190612d99565b610c7c9190612d99565b600760008573ffffffffffffffffffffffffffffffffffffffff1673ffffffffffffffffffffffffffffffffffffffff168152602001908152602001600020819055506111bc565b60001515600560008a73ffffffffffffffffffffffffffffffffffffffff1673ffffffffffffffffffffffffffffffffffffffff16815260200190815260200160002060009054906101000a900460ff1615151415610dd9576001600560008a73ffffffffffffffffffffffffffffffffffffffff1673ffffffffffffffffffffffffffffffffffffffff16815260200190815260200160002060006101000a81548160ff0219169083151502179055506004889080600181540180825580915050600190039060005260206000200160009091909190916101000a81548173ffffffffffffffffffffffffffffffffffffffff021916908373ffffffffffffffffffffffffffffffffffffffff1602179055505b60005b8460800151518110156110a757600085604001518281518110610e28577f4e487b7100000000000000000000000000000000000000000000000000000000600052603260045260246000fd5b602002602001015173ffffffffffffffffffffffffffffffffffffffff16636352211e87606001518481518110610e88577f4e487b7100000000000000000000000000000000000000000000000000000000600052603260045260246000fd5b60200260200101516040518263ffffffff1660e01b8152600401610eac9190612c0d565b60206040518083038186803b158015610ec457600080fd5b505afa158015610ed8573d6000803e3d6000fd5b505050506040513d601f19601f82011682018060405250810190610efc91906124c3565b905060008361271088608001518581518110610f41577f4e487b7100000000000000000000000000000000000000000000000000000000600052603260045260246000fd5b60200260200101518960200151612710610f5b9190612e7a565b610f659190612e20565b610f6f9190612def565b610f799190612e20565b905080600660008d73ffffffffffffffffffffffffffffffffffffffff1673ffffffffffffffffffffffffffffffffffffffff16815260200190815260200160002060008473ffffffffffffffffffffffffffffffffffffffff1673ffffffffffffffffffffffffffffffffffffffff168152602001908152602001600020546110039190612d99565b600660008d73ffffffffffffffffffffffffffffffffffffffff1673ffffffffffffffffffffffffffffffffffffffff16815260200190815260200160002060008473ffffffffffffffffffffffffffffffffffffffff1673ffffffffffffffffffffffffffffffffffffffff16815260200190815260200160002081905550808461108f9190612e7a565b935050506001816110a09190612d99565b9050610ddc565b508082600660008b73ffffffffffffffffffffffffffffffffffffffff1673ffffffffffffffffffffffffffffffffffffffff16815260200190815260200160002060008673ffffffffffffffffffffffffffffffffffffffff1673ffffffffffffffffffffffffffffffffffffffff168152602001908152602001600020546111319190612d99565b61113b9190612d99565b600660008a73ffffffffffffffffffffffffffffffffffffffff1673ffffffffffffffffffffffffffffffffffffffff16815260200190815260200160002060008573ffffffffffffffffffffffffffffffffffffffff1673ffffffffffffffffffffffffffffffffffffffff168152602001908152602001600020819055505b7fe0e558597dc2013cc5249ed783e09ffa1f1f3c0c4a674658dc15be6b7e1b17c2888888886040516111f19493929190612b0b565b60405180910390a15050505050505050565b6006602052816000526040600020602052806000526040600020600091509150505481565b6112306115d8565b73ffffffffffffffffffffffffffffffffffffffff1661124e6113a1565b73ffffffffffffffffffffffffffffffffffffffff16146112a4576040517f08c379a000000000000000000000000000000000000000000000000000000000815260040161129b90612bcb565b60405180910390fd5b600073ffffffffffffffffffffffffffffffffffffffff1660008054906101000a900473ffffffffffffffffffffffffffffffffffffffff1673ffffffffffffffffffffffffffffffffffffffff167f8be0079c531659141344cd1fd0a4f28419497f9722a3daafe3b4186f6b6457e060405160405180910390a360008060006101000a81548173ffffffffffffffffffffffffffffffffffffffff021916908373ffffffffffffffffffffffffffffffffffffffff160217905550565b6001818154811061137257600080fd5b906000526020600020016000915054906101000a900473ffffffffffffffffffffffffffffffffffffffff1681565b60008060009054906101000a900473ffffffffffffffffffffffffffffffffffffffff16905090565b60056020528060005260406000206000915054906101000a900460ff1681565b60085481565b6113f86115d8565b73ffffffffffffffffffffffffffffffffffffffff166114166113a1565b73ffffffffffffffffffffffffffffffffffffffff161461146c576040517f08c379a000000000000000000000000000000000000000000000000000000000815260040161146390612bcb565b60405180910390fd5b600073ffffffffffffffffffffffffffffffffffffffff168173ffffffffffffffffffffffffffffffffffffffff1614156114dc576040517f08c379a00000000000000000000000000000000000000000000000000000000081526004016114d390612b8b565b60405180910390fd5b8073ffffffffffffffffffffffffffffffffffffffff1660008054906101000a900473ffffffffffffffffffffffffffffffffffffffff1673ffffffffffffffffffffffffffffffffffffffff167f8be0079c531659141344cd1fd0a4f28419497f9722a3daafe3b4186f6b6457e060405160405180910390a3806000806101000a81548173ffffffffffffffffffffffffffffffffffffffff021916908373ffffffffffffffffffffffffffffffffffffffff16021790555050565b600481815481106115a957600080fd5b906000526020600020016000915054906101000a900473ffffffffffffffffffffffffffffffffffffffff1681565b600033905090565b60608060606000606080606060005b8851811015611e78576000600260008d8481518110611637577f4e487b7100000000000000000000000000000000000000000000000000000000600052603260045260246000fd5b602002602001015173ffffffffffffffffffffffffffffffffffffffff1673ffffffffffffffffffffffffffffffffffffffff16815260200190815260200160002060008c84815181106116b4577f4e487b7100000000000000000000000000000000000000000000000000000000600052603260045260246000fd5b602002602001015181526020019081526020016000206040518060e001604052908160008201548152602001600182015481526020016002820180548060200260200160405190810160405280929190818152602001828054801561176e57602002820191906000526020600020905b8160009054906101000a900473ffffffffffffffffffffffffffffffffffffffff1673ffffffffffffffffffffffffffffffffffffffff1681526020019060010190808311611724575b50505050508152602001600382018054806020026020016040519081016040528092919081815260200182805480156117c657602002820191906000526020600020905b8154815260200190600101908083116117b2575b505050505081526020016004820180548060200260200160405190810160405280929190818152602001828054801561181e57602002820191906000526020600020905b81548152602001906001019080831161180a575b50505050508152602001600582018054806020026020016040519081016040528092919081815260200182805480156118ac57602002820191906000526020600020905b8160009054906101000a900473ffffffffffffffffffffffffffffffffffffffff1673ffffffffffffffffffffffffffffffffffffffff1681526020019060010190808311611862575b5050505050815260200160068201805480602002602001604051908101604052809291908181526020016000905b8282101561196c57838290600052602060002090600202016040518060400160405290816000820160009054906101000a900473ffffffffffffffffffffffffffffffffffffffff1673ffffffffffffffffffffffffffffffffffffffff1673ffffffffffffffffffffffffffffffffffffffff168152602001600182015481525050815260200190600101906118da565b505050508152505090506000816000015114611e635760008160800151511115611c925760005b816080015151811015611c8c5760006127108c85815181106119de577f4e487b7100000000000000000000000000000000000000000000000000000000600052603260045260246000fd5b602002602001015184608001518481518110611a23577f4e487b7100000000000000000000000000000000000000000000000000000000600052603260045260246000fd5b6020026020010151611a359190612e20565b611a3f9190612def565b14611c785781604001518781518110611a81577f4e487b7100000000000000000000000000000000000000000000000000000000600052603260045260246000fd5b6020026020010151868881518110611ac2577f4e487b7100000000000000000000000000000000000000000000000000000000600052603260045260246000fd5b602002602001019073ffffffffffffffffffffffffffffffffffffffff16908173ffffffffffffffffffffffffffffffffffffffff168152505081606001518781518110611b39577f4e487b7100000000000000000000000000000000000000000000000000000000600052603260045260246000fd5b6020026020010151858881518110611b7a577f4e487b7100000000000000000000000000000000000000000000000000000000600052603260045260246000fd5b6020026020010181815250506127108b8481518110611bc2577f4e487b7100000000000000000000000000000000000000000000000000000000600052603260045260246000fd5b602002602001015183608001518381518110611c07577f4e487b7100000000000000000000000000000000000000000000000000000000600052603260045260246000fd5b6020026020010151611c199190612e20565b611c239190612def565b848881518110611c5c577f4e487b7100000000000000000000000000000000000000000000000000000000600052603260045260246000fd5b602002602001018181525050600187611c759190612d99565b96505b600181611c859190612d99565b9050611993565b50611e62565b8b8281518110611ccb577f4e487b7100000000000000000000000000000000000000000000000000000000600052603260045260246000fd5b6020026020010151858781518110611d0c577f4e487b7100000000000000000000000000000000000000000000000000000000600052603260045260246000fd5b602002602001019073ffffffffffffffffffffffffffffffffffffffff16908173ffffffffffffffffffffffffffffffffffffffff16815250508a8281518110611d7f577f4e487b7100000000000000000000000000000000000000000000000000000000600052603260045260246000fd5b6020026020010151848781518110611dc0577f4e487b7100000000000000000000000000000000000000000000000000000000600052603260045260246000fd5b602002602001018181525050898281518110611e05577f4e487b7100000000000000000000000000000000000000000000000000000000600052603260045260246000fd5b6020026020010151838781518110611e46577f4e487b7100000000000000000000000000000000000000000000000000000000600052603260045260246000fd5b602002602001018181525050600186611e5f9190612d99565b95505b5b50600181611e719190612d99565b90506115ef565b508282829650965096505050505093509350939050565b6000600260008773ffffffffffffffffffffffffffffffffffffffff1673ffffffffffffffffffffffffffffffffffffffff1681526020019081526020016000206000868152602001908152602001600020905060005b845181101561221d576000826005018281548110611f2d577f4e487b7100000000000000000000000000000000000000000000000000000000600052603260045260246000fd5b9060005260206000200160009054906101000a900473ffffffffffffffffffffffffffffffffffffffff169050600115158173ffffffffffffffffffffffffffffffffffffffff166317a6b6098a8a6040518363ffffffff1660e01b8152600401611f99929190612ae2565b602060405180830381600087803b158015611fb357600080fd5b505af1158015611fc7573d6000803e3d6000fd5b505050506040513d601f19601f82011682018060405250810190611feb919061271d565b151514156122085785828151811061202c577f4e487b7100000000000000000000000000000000000000000000000000000000600052603260045260246000fd5b6020026020010151836005018381548110612070577f4e487b7100000000000000000000000000000000000000000000000000000000600052603260045260246000fd5b9060005260206000200160006101000a81548173ffffffffffffffffffffffffffffffffffffffff021916908373ffffffffffffffffffffffffffffffffffffffff160217905550600060405180604001604052808785815181106120fe577f4e487b7100000000000000000000000000000000000000000000000000000000600052603260045260246000fd5b602002602001015173ffffffffffffffffffffffffffffffffffffffff16815260200186858151811061215a577f4e487b7100000000000000000000000000000000000000000000000000000000600052603260045260246000fd5b60200260200101518152509050808460060184815481106121a4577f4e487b7100000000000000000000000000000000000000000000000000000000600052603260045260246000fd5b906000526020600020906002020160008201518160000160006101000a81548173ffffffffffffffffffffffffffffffffffffffff021916908373ffffffffffffffffffffffffffffffffffffffff16021790555060208201518160010155905050505b506001816122169190612d99565b9050611ee6565b50505050505050565b828054828255906000526020600020908101928215612262579160200282015b82811115612261578251825591602001919060010190612246565b5b50905061226f91906122fd565b5090565b8280548282559060005260206000209081019282156122ec579160200282015b828111156122eb5782518260006101000a81548173ffffffffffffffffffffffffffffffffffffffff021916908373ffffffffffffffffffffffffffffffffffffffff16021790555091602001919060010190612293565b5b5090506122f991906122fd565b5090565b5b808211156123165760008160009055506001016122fe565b5090565b600061232d61232884612c76565b612c51565b9050808382526020820190508285602086028201111561234c57600080fd5b60005b8581101561237c578161236288826123f2565b84526020840193506020830192505060018101905061234f565b5050509392505050565b600061239961239484612ca2565b612c51565b905080838252602082019050828560208602820111156123b857600080fd5b60005b858110156123e857816123ce8882612485565b8452602084019350602083019250506001810190506123bb565b5050509392505050565b60008135905061240181613146565b92915050565b60008151905061241681613146565b92915050565b600082601f83011261242d57600080fd5b813561243d84826020860161231a565b91505092915050565b600082601f83011261245757600080fd5b8135612467848260208601612386565b91505092915050565b60008151905061247f8161315d565b92915050565b60008135905061249481613174565b92915050565b6000602082840312156124ac57600080fd5b60006124ba848285016123f2565b91505092915050565b6000602082840312156124d557600080fd5b60006124e384828501612407565b91505092915050565b600080604083850312156124ff57600080fd5b600061250d858286016123f2565b925050602061251e858286016123f2565b9150509250929050565b6000806040838503121561253b57600080fd5b6000612549858286016123f2565b925050602061255a85828601612485565b9150509250929050565b6000806000806080858703121561257a57600080fd5b6000612588878288016123f2565b945050602061259987828801612485565b93505060406125aa878288016123f2565b92505060606125bb87828801612485565b91505092959194509250565b60008060008060008060008060006101208a8c0312156125e657600080fd5b60006125f48c828d016123f2565b99505060206126058c828d01612485565b98505060406126168c828d01612485565b97505060608a013567ffffffffffffffff81111561263357600080fd5b61263f8c828d0161241c565b96505060808a013567ffffffffffffffff81111561265c57600080fd5b6126688c828d01612446565b95505060a08a013567ffffffffffffffff81111561268557600080fd5b6126918c828d01612446565b94505060c08a013567ffffffffffffffff8111156126ae57600080fd5b6126ba8c828d0161241c565b93505060e08a013567ffffffffffffffff8111156126d757600080fd5b6126e38c828d0161241c565b9250506101008a013567ffffffffffffffff81111561270157600080fd5b61270d8c828d01612446565b9150509295985092959850929598565b60006020828403121561272f57600080fd5b600061273d84828501612470565b91505092915050565b60006020828403121561275857600080fd5b600061276684828501612485565b91505092915050565b600061277b83836127b7565b60208301905092915050565b60006127938383612a62565b60408301905092915050565b60006127ab8383612aa9565b60208301905092915050565b6127c081612ed8565b82525050565b6127cf81612ed8565b82525050565b60006127e082612d0d565b6127ea8185612d55565b93506127f583612cce565b8060005b8381101561282d5761280a82613012565b612814888261276f565b975061281f83612d2e565b9250506001810190506127f9565b5085935050505092915050565b600061284582612d18565b61284f8185612d66565b935061285a83612ce3565b8060005b8381101561288a57816128718882612787565b975061287c83612d3b565b92505060018101905061285e565b5085935050505092915050565b60006128a282612d23565b6128ac8185612d77565b93506128b783612cf8565b8060005b838110156128ef576128cc82613025565b6128d6888261279f565b97506128e183612d48565b9250506001810190506128bb565b5085935050505092915050565b61290581612eea565b82525050565b6000612918602e83612d88565b915061292382613056565b604082019050919050565b600061293b602683612d88565b9150612946826130a5565b604082019050919050565b600061295e601983612d88565b9150612969826130f4565b602082019050919050565b6000612981602083612d88565b915061298c8261311d565b602082019050919050565b600060e0830160008084015490506129ae81612f3a565b6129bb6000870182612aa9565b50600184015490506129cc81612f3a565b6129d96020870182612aa9565b506002840185830360408701526129f083826127d5565b925050600384018583036060870152612a098382612897565b925050600484018583036080870152612a228382612897565b9250506005840185830360a0870152612a3b83826127d5565b9250506006840185830360c0870152612a54838261283a565b925050819250505092915050565b604082016000808301549050612a7781612f20565b612a8460008601826127b7565b5060018301549050612a9581612f3a565b612aa26020860182612aa9565b5050505050565b612ab281612f16565b82525050565b612ac181612f16565b82525050565b6000602082019050612adc60008301846127c6565b92915050565b6000604082019050612af760008301856127c6565b612b046020830184612ab8565b9392505050565b6000608082019050612b2060008301876127c6565b612b2d6020830186612ab8565b612b3a60408301856127c6565b612b476060830184612ab8565b95945050505050565b6000602082019050612b6560008301846128fc565b92915050565b60006020820190508181036000830152612b848161290b565b9050919050565b60006020820190508181036000830152612ba48161292e565b9050919050565b60006020820190508181036000830152612bc481612951565b9050919050565b60006020820190508181036000830152612be481612974565b9050919050565b60006020820190508181036000830152612c058184612997565b905092915050565b6000602082019050612c226000830184612ab8565b92915050565b6000604082019050612c3d6000830185612ab8565b612c4a6020830184612ab8565b9392505050565b6000612c5b612c6c565b9050612c678282612f54565b919050565b6000604051905090565b600067ffffffffffffffff821115612c9157612c90612fe3565b5b602082029050602081019050919050565b600067ffffffffffffffff821115612cbd57612cbc612fe3565b5b602082029050602081019050919050565b60008190508160005260206000209050919050565b60008190508160005260206000209050919050565b60008190508160005260206000209050919050565b600081549050919050565b600081549050919050565b600081549050919050565b6000600182019050919050565b6000600282019050919050565b6000600182019050919050565b600082825260208201905092915050565b600082825260208201905092915050565b600082825260208201905092915050565b600082825260208201905092915050565b6000612da482612f16565b9150612daf83612f16565b9250827fffffffffffffffffffffffffffffffffffffffffffffffffffffffffffffffff03821115612de457612de3612f85565b5b828201905092915050565b6000612dfa82612f16565b9150612e0583612f16565b925082612e1557612e14612fb4565b5b828204905092915050565b6000612e2b82612f16565b9150612e3683612f16565b9250817fffffffffffffffffffffffffffffffffffffffffffffffffffffffffffffffff0483118215151615612e6f57612e6e612f85565b5b828202905092915050565b6000612e8582612f16565b9150612e9083612f16565b925082821015612ea357612ea2612f85565b5b828203905092915050565b600073ffffffffffffffffffffffffffffffffffffffff82169050919050565b6000819050919050565b6000612ee382612ef6565b9050919050565b60008115159050919050565b600073ffffffffffffffffffffffffffffffffffffffff82169050919050565b6000819050919050565b6000612f33612f2e83613049565b612eae565b9050919050565b6000612f4d612f4883613049565b612ece565b9050919050565b612f5d82613038565b810181811067ffffffffffffffff82111715612f7c57612f7b612fe3565b5b80604052505050565b7f4e487b7100000000000000000000000000000000000000000000000000000000600052601160045260246000fd5b7f4e487b7100000000000000000000000000000000000000000000000000000000600052601260045260246000fd5b7f4e487b7100000000000000000000000000000000000000000000000000000000600052604160045260246000fd5b600061301e8254612f20565b9050919050565b60006130318254612f3a565b9050919050565b6000601f19601f8301169050919050565b60008160001c9050919050565b7f4f776e657227732073686172652067726561746572207468616e2031302c303060008201527f3020626173697320706f696e7473000000000000000000000000000000000000602082015250565b7f4f776e61626c653a206e6577206f776e657220697320746865207a65726f206160008201527f6464726573730000000000000000000000000000000000000000000000000000602082015250565b7f4e465420646f6573206e6f742068617665206c6963656e736500000000000000600082015250565b7f4f776e61626c653a2063616c6c6572206973206e6f7420746865206f776e6572600082015250565b61314f81612ed8565b811461315a57600080fd5b50565b61316681612eea565b811461317157600080fd5b50565b61317d81612f16565b811461318857600080fd5b5056fea264697066735822122020e5128d44462284e916df815de481fdc0af40ac9afab3611803d6d91c48659764736f6c63430008030033",
  "linkReferences": {},
  "deployedLinkReferences": {}
}