{
  "_format": "hh-sol-artifact-1",
  "contractName": "Squad",
  "sourceName": "contracts/Squad.sol",
  "abi": [
    {
      "inputs": [
        {
          "internalType": "address[]",
          "name": "_rightsManagers",
          "type": "address[]"
        },
        {
          "internalType": "uint256",
          "name": "_fee",
          "type": "uint256"
        }
      ],
      "stateMutability": "nonpayable",
      "type": "constructor"
    },
    {
      "anonymous": false,
      "inputs": [
        {
          "indexed": false,
          "internalType": "address",
          "name": "rightsManager",
          "type": "address"
        }
      ],
      "name": "AddRightsManager",
      "type": "event"
    },
    {
      "anonymous": false,
      "inputs": [
        {
          "components": [
            {
              "internalType": "uint256",
              "name": "id",
              "type": "uint256"
            },
            {
              "internalType": "uint256",
              "name": "ownerShare",
              "type": "uint256"
            },
            {
              "internalType": "address[]",
              "name": "weightsAddresses",
              "type": "address[]"
            },
            {
              "internalType": "uint256[]",
              "name": "weightsIds",
              "type": "uint256[]"
            },
            {
              "internalType": "uint256[]",
              "name": "weights",
              "type": "uint256[]"
            },
            {
              "internalType": "address[]",
              "name": "rightsAddresses",
              "type": "address[]"
            },
            {
              "components": [
                {
                  "internalType": "address",
                  "name": "token",
                  "type": "address"
                },
                {
                  "internalType": "uint256",
                  "name": "amount",
                  "type": "uint256"
                }
              ],
              "internalType": "struct ISquad.RightsParams[]",
              "name": "rights",
              "type": "tuple[]"
            }
          ],
          "indexed": false,
          "internalType": "struct ISquad.License",
          "name": "license",
          "type": "tuple"
        }
      ],
      "name": "NFTRegistered",
      "type": "event"
    },
    {
      "anonymous": false,
      "inputs": [
        {
          "indexed": true,
          "internalType": "address",
          "name": "previousOwner",
          "type": "address"
        },
        {
          "indexed": true,
          "internalType": "address",
          "name": "newOwner",
          "type": "address"
        }
      ],
      "name": "OwnershipTransferred",
      "type": "event"
    },
    {
      "anonymous": false,
      "inputs": [
        {
          "indexed": false,
          "internalType": "address",
          "name": "asset",
          "type": "address"
        },
        {
          "indexed": false,
          "internalType": "uint256",
          "name": "amount",
          "type": "uint256"
        },
        {
          "indexed": false,
          "internalType": "address",
          "name": "nftAdress",
          "type": "address"
        },
        {
          "indexed": false,
          "internalType": "uint256",
          "name": "nftId",
          "type": "uint256"
        }
      ],
      "name": "PaymentAdded",
      "type": "event"
    },
    {
      "anonymous": false,
      "inputs": [
        {
          "indexed": false,
          "internalType": "uint256",
          "name": "amount",
          "type": "uint256"
        }
      ],
      "name": "ReceiveEther",
      "type": "event"
    },
    {
      "anonymous": false,
      "inputs": [
        {
          "indexed": false,
          "internalType": "address[]",
          "name": "rightsManagers",
          "type": "address[]"
        },
        {
          "indexed": false,
          "internalType": "address",
          "name": "removedRightsManager",
          "type": "address"
        }
      ],
      "name": "RemoveRightsManager",
      "type": "event"
    },
    {
      "anonymous": false,
      "inputs": [
        {
          "indexed": false,
          "internalType": "uint256",
          "name": "oldFee",
          "type": "uint256"
        },
        {
          "indexed": false,
          "internalType": "uint256",
          "name": "newFee",
          "type": "uint256"
        }
      ],
      "name": "SetFee",
      "type": "event"
    },
    {
      "anonymous": false,
      "inputs": [
        {
          "indexed": false,
          "internalType": "address",
          "name": "asset",
          "type": "address"
        },
        {
          "indexed": false,
          "internalType": "bool",
          "name": "Eth",
          "type": "bool"
        },
        {
          "indexed": false,
          "internalType": "address",
          "name": "recipient",
          "type": "address"
        },
        {
          "indexed": false,
          "internalType": "uint256",
          "name": "amount",
          "type": "uint256"
        },
        {
          "indexed": false,
          "internalType": "address",
          "name": "owner",
          "type": "address"
        },
        {
          "indexed": false,
          "internalType": "uint256",
          "name": "ownerFee",
          "type": "uint256"
        }
      ],
      "name": "Withdrawal",
      "type": "event"
    },
    {
      "stateMutability": "payable",
      "type": "fallback"
    },
    {
      "inputs": [
        {
          "internalType": "address",
          "name": "asset",
          "type": "address"
        },
        {
          "internalType": "uint256",
          "name": "amount",
          "type": "uint256"
        },
        {
          "internalType": "address",
          "name": "nftAddress",
          "type": "address"
        },
        {
          "internalType": "uint256",
          "name": "nftId",
          "type": "uint256"
        }
      ],
      "name": "addPayment",
      "outputs": [],
      "stateMutability": "nonpayable",
      "type": "function"
    },
    {
      "inputs": [
        {
          "internalType": "address",
          "name": "rightsManager",
          "type": "address"
        }
      ],
      "name": "addRightsManager",
      "outputs": [],
      "stateMutability": "nonpayable",
      "type": "function"
    },
    {
      "inputs": [
        {
          "internalType": "address",
          "name": "",
          "type": "address"
        },
        {
          "internalType": "address",
          "name": "",
          "type": "address"
        }
      ],
      "name": "balances",
      "outputs": [
        {
          "internalType": "uint256",
          "name": "",
          "type": "uint256"
        }
      ],
      "stateMutability": "view",
      "type": "function"
    },
    {
      "inputs": [],
      "name": "fee",
      "outputs": [
        {
          "internalType": "uint256",
          "name": "",
          "type": "uint256"
        }
      ],
      "stateMutability": "view",
      "type": "function"
    },
    {
      "inputs": [
        {
          "internalType": "address",
          "name": "",
          "type": "address"
        },
        {
          "internalType": "uint256",
          "name": "",
          "type": "uint256"
        }
      ],
      "name": "licenses",
      "outputs": [
        {
          "internalType": "uint256",
          "name": "id",
          "type": "uint256"
        },
        {
          "internalType": "uint256",
          "name": "ownerShare",
          "type": "uint256"
        }
      ],
      "stateMutability": "view",
      "type": "function"
    },
    {
      "inputs": [],
      "name": "owner",
      "outputs": [
        {
          "internalType": "address",
          "name": "",
          "type": "address"
        }
      ],
      "stateMutability": "view",
      "type": "function"
    },
    {
      "inputs": [
        {
          "internalType": "address",
          "name": "nftAddress",
          "type": "address"
        },
        {
          "internalType": "uint256",
          "name": "nftId",
          "type": "uint256"
        },
        {
          "internalType": "uint256",
          "name": "ownerShare",
          "type": "uint256"
        },
        {
          "internalType": "address[]",
          "name": "weightsAddresses",
          "type": "address[]"
        },
        {
          "internalType": "uint256[]",
          "name": "weightsIds",
          "type": "uint256[]"
        },
        {
          "internalType": "uint256[]",
          "name": "weights",
          "type": "uint256[]"
        },
        {
          "internalType": "address[]",
          "name": "rightsAddresses",
          "type": "address[]"
        },
        {
          "internalType": "address[]",
          "name": "rightsTokens",
          "type": "address[]"
        },
        {
          "internalType": "uint256[]",
          "name": "rightsAmounts",
          "type": "uint256[]"
        }
      ],
      "name": "registerNFT",
      "outputs": [],
      "stateMutability": "nonpayable",
      "type": "function"
    },
    {
      "inputs": [
        {
          "internalType": "uint256",
          "name": "rightsManagerIndex",
          "type": "uint256"
        }
      ],
      "name": "removeRightsManager",
      "outputs": [],
      "stateMutability": "nonpayable",
      "type": "function"
    },
    {
      "inputs": [],
      "name": "renounceOwnership",
      "outputs": [],
      "stateMutability": "nonpayable",
      "type": "function"
    },
    {
      "inputs": [
        {
          "internalType": "uint256",
          "name": "",
          "type": "uint256"
        }
      ],
      "name": "rightsManagers",
      "outputs": [
        {
          "internalType": "address",
          "name": "",
          "type": "address"
        }
      ],
      "stateMutability": "view",
      "type": "function"
    },
    {
      "inputs": [
        {
          "internalType": "address",
          "name": "nftAddress",
          "type": "address"
        },
        {
          "internalType": "uint256",
          "name": "nftId",
          "type": "uint256"
        },
        {
          "internalType": "address",
          "name": "rightsManager",
          "type": "address"
        }
      ],
      "name": "rightsParamsFor",
      "outputs": [
        {
          "internalType": "address",
          "name": "",
          "type": "address"
        },
        {
          "internalType": "uint256",
          "name": "",
          "type": "uint256"
        }
      ],
      "stateMutability": "view",
      "type": "function"
    },
    {
      "inputs": [
        {
          "internalType": "uint256",
          "name": "_fee",
          "type": "uint256"
        }
      ],
      "name": "setFee",
      "outputs": [],
      "stateMutability": "nonpayable",
      "type": "function"
    },
    {
      "inputs": [
        {
          "internalType": "uint256",
          "name": "",
          "type": "uint256"
        }
      ],
      "name": "tokenArray",
      "outputs": [
        {
          "internalType": "address",
          "name": "",
          "type": "address"
        }
      ],
      "stateMutability": "view",
      "type": "function"
    },
    {
      "inputs": [
        {
          "internalType": "address",
          "name": "",
          "type": "address"
        }
      ],
      "name": "tokenMapping",
      "outputs": [
        {
          "internalType": "bool",
          "name": "",
          "type": "bool"
        }
      ],
      "stateMutability": "view",
      "type": "function"
    },
    {
      "inputs": [
        {
          "internalType": "address",
          "name": "newOwner",
          "type": "address"
        }
      ],
      "name": "transferOwnership",
      "outputs": [],
      "stateMutability": "nonpayable",
      "type": "function"
    },
    {
      "inputs": [
        {
          "internalType": "address",
          "name": "asset",
          "type": "address"
        },
        {
          "internalType": "address",
          "name": "recipient",
          "type": "address"
        }
      ],
      "name": "withdraw",
      "outputs": [],
      "stateMutability": "nonpayable",
      "type": "function"
    },
    {
      "stateMutability": "payable",
      "type": "receive"
    }
  ],
  "bytecode": "0x60806040523480156200001157600080fd5b5060405162004d1238038062004d128339818101604052810190620000379190620002dd565b6000620000496200015760201b60201c565b9050806000806101000a81548173ffffffffffffffffffffffffffffffffffffffff021916908373ffffffffffffffffffffffffffffffffffffffff1602179055508073ffffffffffffffffffffffffffffffffffffffff16600073ffffffffffffffffffffffffffffffffffffffff167f8be0079c531659141344cd1fd0a4f28419497f9722a3daafe3b4186f6b6457e060405160405180910390a3506127108111156200012f576040517f08c379a000000000000000000000000000000000000000000000000000000000815260040162000126906200035e565b60405180910390fd5b8160019080519060200190620001479291906200015f565b5080600781905550505062000520565b600033905090565b828054828255906000526020600020908101928215620001db579160200282015b82811115620001da5782518260006101000a81548173ffffffffffffffffffffffffffffffffffffffff021916908373ffffffffffffffffffffffffffffffffffffffff1602179055509160200191906001019062000180565b5b509050620001ea9190620001ee565b5090565b5b8082111562000209576000816000905550600101620001ef565b5090565b6000620002246200021e84620003a9565b62000380565b905080838252602082019050828560208602820111156200024457600080fd5b60005b858110156200027857816200025d888262000282565b84526020840193506020830192505060018101905062000247565b5050509392505050565b6000815190506200029381620004ec565b92915050565b600082601f830112620002ab57600080fd5b8151620002bd8482602086016200020d565b91505092915050565b600081519050620002d78162000506565b92915050565b60008060408385031215620002f157600080fd5b600083015167ffffffffffffffff8111156200030c57600080fd5b6200031a8582860162000299565b92505060206200032d85828601620002c6565b9150509250929050565b600062000346602483620003d8565b915062000353826200049d565b604082019050919050565b60006020820190508181036000830152620003798162000337565b9050919050565b60006200038c6200039f565b90506200039a828262000427565b919050565b6000604051905090565b600067ffffffffffffffff821115620003c757620003c66200045d565b5b602082029050602081019050919050565b600082825260208201905092915050565b6000620003f682620003fd565b9050919050565b600073ffffffffffffffffffffffffffffffffffffffff82169050919050565b6000819050919050565b62000432826200048c565b810181811067ffffffffffffffff821117156200045457620004536200045d565b5b80604052505050565b7f4e487b7100000000000000000000000000000000000000000000000000000000600052604160045260246000fd5b6000601f19601f8301169050919050565b7f4665652067726561746572207468616e2031302c30303020626173697320706f60008201527f696e747300000000000000000000000000000000000000000000000000000000602082015250565b620004f781620003e9565b81146200050357600080fd5b50565b62000511816200041d565b81146200051d57600080fd5b50565b6147e280620005306000396000f3fe6080604052600436106100f75760003560e01c806391bad00d1161008a578063ddca3f4311610059578063ddca3f43146103b0578063f2fde38b146103db578063f940e38514610404578063faa32f5d1461042d57610135565b806391bad00d146102e4578063b02820741461030d578063ba27f50b14610336578063c23f001f1461037357610135565b806369fe0e2d116100c657806369fe0e2d1461023c578063715018a6146102655780637a0c7ec71461027c5780638da5cb5b146102b957610135565b80630be644ee1461016e5780632a13bae4146101ac5780633eac0b57146101d55780635130eebd146101fe57610135565b36610135577fceeedae0890c8b65dd388797879b0ea414f47e1bb170734056b4004c4a7e18143460405161012b919061403d565b60405180910390a1005b7fceeedae0890c8b65dd388797879b0ea414f47e1bb170734056b4004c4a7e181434604051610164919061403d565b60405180910390a1005b34801561017a57600080fd5b50610195600480360381019061019091906135fb565b61046a565b6040516101a3929190614058565b60405180910390f35b3480156101b857600080fd5b506101d360048036038101906101ce91906136e9565b61049b565b005b3480156101e157600080fd5b506101fc60048036038101906101f79190613686565b61070f565b005b34801561020a57600080fd5b5061022560048036038101906102209190613637565b61115c565b604051610233929190613de2565b60405180910390f35b34801561024857600080fd5b50610263600480360381019061025e9190613868565b611635565b005b34801561027157600080fd5b5061027a611743565b005b34801561028857600080fd5b506102a3600480360381019061029e9190613868565b61187d565b6040516102b09190613d66565b60405180910390f35b3480156102c557600080fd5b506102ce6118bc565b6040516102db9190613d66565b60405180910390f35b3480156102f057600080fd5b5061030b60048036038101906103069190613868565b6118e5565b005b34801561031957600080fd5b50610334600480360381019061032f919061356d565b611b43565b005b34801561034257600080fd5b5061035d6004803603810190610358919061356d565b611e2d565b60405161036a9190613e80565b60405180910390f35b34801561037f57600080fd5b5061039a600480360381019061039591906135bf565b611e4d565b6040516103a7919061403d565b60405180910390f35b3480156103bc57600080fd5b506103c5611e72565b6040516103d2919061403d565b60405180910390f35b3480156103e757600080fd5b5061040260048036038101906103fd919061356d565b611e78565b005b34801561041057600080fd5b5061042b600480360381019061042691906135bf565b612021565b005b34801561043957600080fd5b50610454600480360381019061044f9190613868565b612449565b6040516104619190613d66565b60405180910390f35b6002602052816000526040600020602052806000526040600020600091509150508060000154908060010154905082565b88888173ffffffffffffffffffffffffffffffffffffffff16636352211e826040518263ffffffff1660e01b81526004016104d6919061403d565b60206040518083038186803b1580156104ee57600080fd5b505afa158015610502573d6000803e3d6000fd5b505050506040513d601f19601f820116820180604052508101906105269190613596565b73ffffffffffffffffffffffffffffffffffffffff163373ffffffffffffffffffffffffffffffffffffffff1614610593576040517f08c379a000000000000000000000000000000000000000000000000000000000815260040161058a90613edb565b60405180910390fd5b6127108911156105d8576040517f08c379a00000000000000000000000000000000000000000000000000000000081526004016105cf90613e9b565b60405180910390fd5b6000600260008d73ffffffffffffffffffffffffffffffffffffffff1673ffffffffffffffffffffffffffffffffffffffff16815260200190815260200160002060008c81526020019081526020016000209050898160010181905550610640898989612488565b8360020160008560030160008760040160008691905090805190602001906106699291906132f9565b508591905090805190602001906106819291906132f9565b50849190509080519060200190610699929190613346565b505050506106aa8c8c888888612f5a565b60016003546106b991906141da565b60038190555060035481600001819055507f06f1a6a0037d91c61d2be186be759caa587eea8c54c326125c0e7d1dd58bf798816040516106f9919061401b565b60405180910390a1505050505050505050505050565b6000805b6001805490508110156107d1576001818154811061075a577f4e487b7100000000000000000000000000000000000000000000000000000000600052603260045260246000fd5b9060005260206000200160009054906101000a900473ffffffffffffffffffffffffffffffffffffffff1673ffffffffffffffffffffffffffffffffffffffff163373ffffffffffffffffffffffffffffffffffffffff1614156107bd57600191505b6001816107ca91906141da565b9050610713565b506001151581151514610819576040517f08c379a000000000000000000000000000000000000000000000000000000000815260040161081090613f1b565b60405180910390fd5b6000600260008573ffffffffffffffffffffffffffffffffffffffff1673ffffffffffffffffffffffffffffffffffffffff16815260200190815260200160002060008481526020019081526020016000206040518060e001604052908160008201548152602001600182015481526020016002820180548060200260200160405190810160405280929190818152602001828054801561090f57602002820191906000526020600020905b8160009054906101000a900473ffffffffffffffffffffffffffffffffffffffff1673ffffffffffffffffffffffffffffffffffffffff16815260200190600101908083116108c5575b505050505081526020016003820180548060200260200160405190810160405280929190818152602001828054801561096757602002820191906000526020600020905b815481526020019060010190808311610953575b50505050508152602001600482018054806020026020016040519081016040528092919081815260200182805480156109bf57602002820191906000526020600020905b8154815260200190600101908083116109ab575b5050505050815260200160058201805480602002602001604051908101604052809291908181526020018280548015610a4d57602002820191906000526020600020905b8160009054906101000a900473ffffffffffffffffffffffffffffffffffffffff1673ffffffffffffffffffffffffffffffffffffffff1681526020019060010190808311610a03575b5050505050815260200160068201805480602002602001604051908101604052809291908181526020016000905b82821015610b0d57838290600052602060002090600202016040518060400160405290816000820160009054906101000a900473ffffffffffffffffffffffffffffffffffffffff1673ffffffffffffffffffffffffffffffffffffffff1673ffffffffffffffffffffffffffffffffffffffff16815260200160018201548152505081526020019060010190610a7b565b50505050815250509050600081600001511415610b5f576040517f08c379a0000000000000000000000000000000000000000000000000000000008152600401610b5690613f7b565b60405180910390fd5b60008473ffffffffffffffffffffffffffffffffffffffff16636352211e856040518263ffffffff1660e01b8152600401610b9a919061403d565b60206040518083038186803b158015610bb257600080fd5b505afa158015610bc6573d6000803e3d6000fd5b505050506040513d601f19601f82011682018060405250810190610bea9190613596565b90506000866127108460200151610c019190614230565b610c0b9190614261565b905060008188610c1b91906142bb565b905060001515600560008b73ffffffffffffffffffffffffffffffffffffffff1673ffffffffffffffffffffffffffffffffffffffff16815260200190815260200160002060009054906101000a900460ff1615151415610d32576001600560008b73ffffffffffffffffffffffffffffffffffffffff1673ffffffffffffffffffffffffffffffffffffffff16815260200190815260200160002060006101000a81548160ff0219169083151502179055506004899080600181540180825580915050600190039060005260206000200160009091909190916101000a81548173ffffffffffffffffffffffffffffffffffffffff021916908373ffffffffffffffffffffffffffffffffffffffff1602179055505b60005b84608001515181101561100057600085604001518281518110610d81577f4e487b7100000000000000000000000000000000000000000000000000000000600052603260045260246000fd5b602002602001015173ffffffffffffffffffffffffffffffffffffffff16636352211e87606001518481518110610de1577f4e487b7100000000000000000000000000000000000000000000000000000000600052603260045260246000fd5b60200260200101516040518263ffffffff1660e01b8152600401610e05919061403d565b60206040518083038186803b158015610e1d57600080fd5b505afa158015610e31573d6000803e3d6000fd5b505050506040513d601f19601f82011682018060405250810190610e559190613596565b905060008361271088608001518581518110610e9a577f4e487b7100000000000000000000000000000000000000000000000000000000600052603260045260246000fd5b60200260200101518960200151612710610eb491906142bb565b610ebe9190614261565b610ec89190614230565b610ed29190614261565b905080600660008e73ffffffffffffffffffffffffffffffffffffffff1673ffffffffffffffffffffffffffffffffffffffff16815260200190815260200160002060008473ffffffffffffffffffffffffffffffffffffffff1673ffffffffffffffffffffffffffffffffffffffff16815260200190815260200160002054610f5c91906141da565b600660008e73ffffffffffffffffffffffffffffffffffffffff1673ffffffffffffffffffffffffffffffffffffffff16815260200190815260200160002060008473ffffffffffffffffffffffffffffffffffffffff1673ffffffffffffffffffffffffffffffffffffffff168152602001908152602001600020819055508084610fe891906142bb565b93505050600181610ff991906141da565b9050610d35565b508082600660008c73ffffffffffffffffffffffffffffffffffffffff1673ffffffffffffffffffffffffffffffffffffffff16815260200190815260200160002060008673ffffffffffffffffffffffffffffffffffffffff1673ffffffffffffffffffffffffffffffffffffffff1681526020019081526020016000205461108a91906141da565b61109491906141da565b600660008b73ffffffffffffffffffffffffffffffffffffffff1673ffffffffffffffffffffffffffffffffffffffff16815260200190815260200160002060008573ffffffffffffffffffffffffffffffffffffffff1673ffffffffffffffffffffffffffffffffffffffff168152602001908152602001600020819055507fe0e558597dc2013cc5249ed783e09ffa1f1f3c0c4a674658dc15be6b7e1b17c2898989896040516111499493929190613e0b565b60405180910390a1505050505050505050565b6000806000600260008773ffffffffffffffffffffffffffffffffffffffff1673ffffffffffffffffffffffffffffffffffffffff16815260200190815260200160002060008681526020019081526020016000206040518060e001604052908160008201548152602001600182015481526020016002820180548060200260200160405190810160405280929190818152602001828054801561125557602002820191906000526020600020905b8160009054906101000a900473ffffffffffffffffffffffffffffffffffffffff1673ffffffffffffffffffffffffffffffffffffffff168152602001906001019080831161120b575b50505050508152602001600382018054806020026020016040519081016040528092919081815260200182805480156112ad57602002820191906000526020600020905b815481526020019060010190808311611299575b505050505081526020016004820180548060200260200160405190810160405280929190818152602001828054801561130557602002820191906000526020600020905b8154815260200190600101908083116112f1575b505050505081526020016005820180548060200260200160405190810160405280929190818152602001828054801561139357602002820191906000526020600020905b8160009054906101000a900473ffffffffffffffffffffffffffffffffffffffff1673ffffffffffffffffffffffffffffffffffffffff1681526020019060010190808311611349575b5050505050815260200160068201805480602002602001604051908101604052809291908181526020016000905b8282101561145357838290600052602060002090600202016040518060400160405290816000820160009054906101000a900473ffffffffffffffffffffffffffffffffffffffff1673ffffffffffffffffffffffffffffffffffffffff1673ffffffffffffffffffffffffffffffffffffffff168152602001600182015481525050815260200190600101906113c1565b505050508152505090506000816000015114156114a5576040517f08c379a000000000000000000000000000000000000000000000000000000000815260040161149c90613f7b565b60405180910390fd5b60008060005b8360c001515181101561154c578673ffffffffffffffffffffffffffffffffffffffff168460a00151828151811061150c577f4e487b7100000000000000000000000000000000000000000000000000000000600052603260045260246000fd5b602002602001015173ffffffffffffffffffffffffffffffffffffffff16141561153857600191508092505b60018161154591906141da565b90506114ab565b506001151581151514611594576040517f08c379a000000000000000000000000000000000000000000000000000000000815260040161158b90613f3b565b60405180910390fd5b8260c0015182815181106115d1577f4e487b7100000000000000000000000000000000000000000000000000000000600052603260045260246000fd5b6020026020010151600001518360c00151838151811061161a577f4e487b7100000000000000000000000000000000000000000000000000000000600052603260045260246000fd5b60200260200101516020015194509450505050935093915050565b61163d6132f1565b73ffffffffffffffffffffffffffffffffffffffff1661165b6118bc565b73ffffffffffffffffffffffffffffffffffffffff16146116b1576040517f08c379a00000000000000000000000000000000000000000000000000000000081526004016116a890613f9b565b60405180910390fd5b6127108111156116f6576040517f08c379a00000000000000000000000000000000000000000000000000000000081526004016116ed90613fbb565b60405180910390fd5b60006007549050816007819055507f032dc6a2d839eb179729a55633fdf1c41a1fc4739394154117005db2b354b9b581600754604051611737929190614058565b60405180910390a15050565b61174b6132f1565b73ffffffffffffffffffffffffffffffffffffffff166117696118bc565b73ffffffffffffffffffffffffffffffffffffffff16146117bf576040517f08c379a00000000000000000000000000000000000000000000000000000000081526004016117b690613f9b565b60405180910390fd5b600073ffffffffffffffffffffffffffffffffffffffff1660008054906101000a900473ffffffffffffffffffffffffffffffffffffffff1673ffffffffffffffffffffffffffffffffffffffff167f8be0079c531659141344cd1fd0a4f28419497f9722a3daafe3b4186f6b6457e060405160405180910390a360008060006101000a81548173ffffffffffffffffffffffffffffffffffffffff021916908373ffffffffffffffffffffffffffffffffffffffff160217905550565b6001818154811061188d57600080fd5b906000526020600020016000915054906101000a900473ffffffffffffffffffffffffffffffffffffffff1681565b60008060009054906101000a900473ffffffffffffffffffffffffffffffffffffffff16905090565b6118ed6132f1565b73ffffffffffffffffffffffffffffffffffffffff1661190b6118bc565b73ffffffffffffffffffffffffffffffffffffffff1614611961576040517f08c379a000000000000000000000000000000000000000000000000000000000815260040161195890613f9b565b60405180910390fd5b600073ffffffffffffffffffffffffffffffffffffffff16600182815481106119b3577f4e487b7100000000000000000000000000000000000000000000000000000000600052603260045260246000fd5b9060005260206000200160009054906101000a900473ffffffffffffffffffffffffffffffffffffffff1673ffffffffffffffffffffffffffffffffffffffff161415611a35576040517f08c379a0000000000000000000000000000000000000000000000000000000008152600401611a2c90613efb565b60405180910390fd5b600060018281548110611a71577f4e487b7100000000000000000000000000000000000000000000000000000000600052603260045260246000fd5b9060005260206000200160009054906101000a900473ffffffffffffffffffffffffffffffffffffffff16905060018281548110611ad8577f4e487b7100000000000000000000000000000000000000000000000000000000600052603260045260246000fd5b9060005260206000200160006101000a81549073ffffffffffffffffffffffffffffffffffffffff02191690557f31338989bd8204557c14281b3a20f405f82c5b2d613722755472ba1ee1050773600182604051611b37929190613e50565b60405180910390a15050565b611b4b6132f1565b73ffffffffffffffffffffffffffffffffffffffff16611b696118bc565b73ffffffffffffffffffffffffffffffffffffffff1614611bbf576040517f08c379a0000000000000000000000000000000000000000000000000000000008152600401611bb690613f9b565b60405180910390fd5b600073ffffffffffffffffffffffffffffffffffffffff168173ffffffffffffffffffffffffffffffffffffffff161415611c2f576040517f08c379a0000000000000000000000000000000000000000000000000000000008152600401611c2690613fdb565b60405180910390fd5b60008060005b600180549050811015611cf757600073ffffffffffffffffffffffffffffffffffffffff1660018281548110611c94577f4e487b7100000000000000000000000000000000000000000000000000000000600052603260045260246000fd5b9060005260206000200160009054906101000a900473ffffffffffffffffffffffffffffffffffffffff1673ffffffffffffffffffffffffffffffffffffffff161415611ce357600191508092505b600181611cf091906141da565b9050611c35565b50600115158115151415611d8d578260018381548110611d40577f4e487b7100000000000000000000000000000000000000000000000000000000600052603260045260246000fd5b9060005260206000200160006101000a81548173ffffffffffffffffffffffffffffffffffffffff021916908373ffffffffffffffffffffffffffffffffffffffff160217905550611df1565b6001839080600181540180825580915050600190039060005260206000200160009091909190916101000a81548173ffffffffffffffffffffffffffffffffffffffff021916908373ffffffffffffffffffffffffffffffffffffffff1602179055505b7f93b58dd02688d392470b6e0f580232698e43e486329d73ad752846ca2ea46ec083604051611e209190613d66565b60405180910390a1505050565b60056020528060005260406000206000915054906101000a900460ff1681565b6006602052816000526040600020602052806000526040600020600091509150505481565b60075481565b611e806132f1565b73ffffffffffffffffffffffffffffffffffffffff16611e9e6118bc565b73ffffffffffffffffffffffffffffffffffffffff1614611ef4576040517f08c379a0000000000000000000000000000000000000000000000000000000008152600401611eeb90613f9b565b60405180910390fd5b600073ffffffffffffffffffffffffffffffffffffffff168173ffffffffffffffffffffffffffffffffffffffff161415611f64576040517f08c379a0000000000000000000000000000000000000000000000000000000008152600401611f5b90613ebb565b60405180910390fd5b8073ffffffffffffffffffffffffffffffffffffffff1660008054906101000a900473ffffffffffffffffffffffffffffffffffffffff1673ffffffffffffffffffffffffffffffffffffffff167f8be0079c531659141344cd1fd0a4f28419497f9722a3daafe3b4186f6b6457e060405160405180910390a3806000806101000a81548173ffffffffffffffffffffffffffffffffffffffff021916908373ffffffffffffffffffffffffffffffffffffffff16021790555050565b6000612710600754600660008673ffffffffffffffffffffffffffffffffffffffff1673ffffffffffffffffffffffffffffffffffffffff16815260200190815260200160002060008573ffffffffffffffffffffffffffffffffffffffff1673ffffffffffffffffffffffffffffffffffffffff168152602001908152602001600020546120b09190614261565b6120ba9190614230565b9050600081600660008673ffffffffffffffffffffffffffffffffffffffff1673ffffffffffffffffffffffffffffffffffffffff16815260200190815260200160002060008573ffffffffffffffffffffffffffffffffffffffff1673ffffffffffffffffffffffffffffffffffffffff1681526020019081526020016000205461214691906142bb565b90508181600660008773ffffffffffffffffffffffffffffffffffffffff1673ffffffffffffffffffffffffffffffffffffffff16815260200190815260200160002060008673ffffffffffffffffffffffffffffffffffffffff1673ffffffffffffffffffffffffffffffffffffffff168152602001908152602001600020546121d191906142bb565b6121db91906142bb565b600660008673ffffffffffffffffffffffffffffffffffffffff1673ffffffffffffffffffffffffffffffffffffffff16815260200190815260200160002060008573ffffffffffffffffffffffffffffffffffffffff1673ffffffffffffffffffffffffffffffffffffffff168152602001908152602001600020819055508373ffffffffffffffffffffffffffffffffffffffff1663a9059cbb84836040518363ffffffff1660e01b8152600401612296929190613de2565b602060405180830381600087803b1580156122b057600080fd5b505af11580156122c4573d6000803e3d6000fd5b505050506040513d601f19601f820116820180604052508101906122e8919061383f565b612327576040517f08c379a000000000000000000000000000000000000000000000000000000000815260040161231e90613ffb565b60405180910390fd5b8373ffffffffffffffffffffffffffffffffffffffff1663a9059cbb61234b6118bc565b846040518363ffffffff1660e01b8152600401612369929190613de2565b602060405180830381600087803b15801561238357600080fd5b505af1158015612397573d6000803e3d6000fd5b505050506040513d601f19601f820116820180604052508101906123bb919061383f565b6123fa576040517f08c379a00000000000000000000000000000000000000000000000000000000081526004016123f190613f5b565b60405180910390fd5b7f6a90cfd885763a9a16aabbe9f58ff814dec0bf684a5512d134b1dca4973988ec84600085846124286118bc565b8760405161243b96959493929190613d81565b60405180910390a150505050565b6004818154811061245957600080fd5b906000526020600020016000915054906101000a900473ffffffffffffffffffffffffffffffffffffffff1681565b60608060606000606080606060005b8851811015612f43576000600260008d84815181106124df577f4e487b7100000000000000000000000000000000000000000000000000000000600052603260045260246000fd5b602002602001015173ffffffffffffffffffffffffffffffffffffffff1673ffffffffffffffffffffffffffffffffffffffff16815260200190815260200160002060008c848151811061255c577f4e487b7100000000000000000000000000000000000000000000000000000000600052603260045260246000fd5b602002602001015181526020019081526020016000206040518060e001604052908160008201548152602001600182015481526020016002820180548060200260200160405190810160405280929190818152602001828054801561261657602002820191906000526020600020905b8160009054906101000a900473ffffffffffffffffffffffffffffffffffffffff1673ffffffffffffffffffffffffffffffffffffffff16815260200190600101908083116125cc575b505050505081526020016003820180548060200260200160405190810160405280929190818152602001828054801561266e57602002820191906000526020600020905b81548152602001906001019080831161265a575b50505050508152602001600482018054806020026020016040519081016040528092919081815260200182805480156126c657602002820191906000526020600020905b8154815260200190600101908083116126b2575b505050505081526020016005820180548060200260200160405190810160405280929190818152602001828054801561275457602002820191906000526020600020905b8160009054906101000a900473ffffffffffffffffffffffffffffffffffffffff1673ffffffffffffffffffffffffffffffffffffffff168152602001906001019080831161270a575b5050505050815260200160068201805480602002602001604051908101604052809291908181526020016000905b8282101561281457838290600052602060002090600202016040518060400160405290816000820160009054906101000a900473ffffffffffffffffffffffffffffffffffffffff1673ffffffffffffffffffffffffffffffffffffffff1673ffffffffffffffffffffffffffffffffffffffff16815260200160018201548152505081526020019060010190612782565b505050508152505090506000816000015114612f2e5760008160800151511115612d5d578b8281518110612871577f4e487b7100000000000000000000000000000000000000000000000000000000600052603260045260246000fd5b60200260200101518587815181106128b2577f4e487b7100000000000000000000000000000000000000000000000000000000600052603260045260246000fd5b602002602001019073ffffffffffffffffffffffffffffffffffffffff16908173ffffffffffffffffffffffffffffffffffffffff16815250508a8281518110612925577f4e487b7100000000000000000000000000000000000000000000000000000000600052603260045260246000fd5b6020026020010151848781518110612966577f4e487b7100000000000000000000000000000000000000000000000000000000600052603260045260246000fd5b60200260200101818152505061271081602001518b84815181106129b3577f4e487b7100000000000000000000000000000000000000000000000000000000600052603260045260246000fd5b60200260200101516129c59190614261565b6129cf9190614230565b838781518110612a08577f4e487b7100000000000000000000000000000000000000000000000000000000600052603260045260246000fd5b602002602001018181525050600186612a2191906141da565b955060005b816080015151811015612d5757600061271083602001516127108e8781518110612a79577f4e487b7100000000000000000000000000000000000000000000000000000000600052603260045260246000fd5b602002602001015186608001518681518110612abe577f4e487b7100000000000000000000000000000000000000000000000000000000600052603260045260246000fd5b6020026020010151612ad09190614261565b612ada9190614230565b612ae49190614261565b612aee9190614230565b14612d435781604001518781518110612b30577f4e487b7100000000000000000000000000000000000000000000000000000000600052603260045260246000fd5b6020026020010151868881518110612b71577f4e487b7100000000000000000000000000000000000000000000000000000000600052603260045260246000fd5b602002602001019073ffffffffffffffffffffffffffffffffffffffff16908173ffffffffffffffffffffffffffffffffffffffff168152505081606001518781518110612be8577f4e487b7100000000000000000000000000000000000000000000000000000000600052603260045260246000fd5b6020026020010151858881518110612c29577f4e487b7100000000000000000000000000000000000000000000000000000000600052603260045260246000fd5b60200260200101818152505061271082602001516127108d8681518110612c79577f4e487b7100000000000000000000000000000000000000000000000000000000600052603260045260246000fd5b602002602001015185608001518581518110612cbe577f4e487b7100000000000000000000000000000000000000000000000000000000600052603260045260246000fd5b6020026020010151612cd09190614261565b612cda9190614230565b612ce49190614261565b612cee9190614230565b848881518110612d27577f4e487b7100000000000000000000000000000000000000000000000000000000600052603260045260246000fd5b602002602001018181525050600187612d4091906141da565b96505b600181612d5091906141da565b9050612a26565b50612f2d565b8b8281518110612d96577f4e487b7100000000000000000000000000000000000000000000000000000000600052603260045260246000fd5b6020026020010151858781518110612dd7577f4e487b7100000000000000000000000000000000000000000000000000000000600052603260045260246000fd5b602002602001019073ffffffffffffffffffffffffffffffffffffffff16908173ffffffffffffffffffffffffffffffffffffffff16815250508a8281518110612e4a577f4e487b7100000000000000000000000000000000000000000000000000000000600052603260045260246000fd5b6020026020010151848781518110612e8b577f4e487b7100000000000000000000000000000000000000000000000000000000600052603260045260246000fd5b602002602001018181525050898281518110612ed0577f4e487b7100000000000000000000000000000000000000000000000000000000600052603260045260246000fd5b6020026020010151838781518110612f11577f4e487b7100000000000000000000000000000000000000000000000000000000600052603260045260246000fd5b602002602001018181525050600186612f2a91906141da565b95505b5b50600181612f3c91906141da565b9050612497565b508282829650965096505050505093509350939050565b6000600260008773ffffffffffffffffffffffffffffffffffffffff1673ffffffffffffffffffffffffffffffffffffffff1681526020019081526020016000206000868152602001908152602001600020905060005b84518110156132e8576000826005018281548110612ff8577f4e487b7100000000000000000000000000000000000000000000000000000000600052603260045260246000fd5b9060005260206000200160009054906101000a900473ffffffffffffffffffffffffffffffffffffffff169050600115158173ffffffffffffffffffffffffffffffffffffffff166317a6b6098a8a6040518363ffffffff1660e01b8152600401613064929190613de2565b602060405180830381600087803b15801561307e57600080fd5b505af1158015613092573d6000803e3d6000fd5b505050506040513d601f19601f820116820180604052508101906130b6919061383f565b151514156132d3578582815181106130f7577f4e487b7100000000000000000000000000000000000000000000000000000000600052603260045260246000fd5b602002602001015183600501838154811061313b577f4e487b7100000000000000000000000000000000000000000000000000000000600052603260045260246000fd5b9060005260206000200160006101000a81548173ffffffffffffffffffffffffffffffffffffffff021916908373ffffffffffffffffffffffffffffffffffffffff160217905550600060405180604001604052808785815181106131c9577f4e487b7100000000000000000000000000000000000000000000000000000000600052603260045260246000fd5b602002602001015173ffffffffffffffffffffffffffffffffffffffff168152602001868581518110613225577f4e487b7100000000000000000000000000000000000000000000000000000000600052603260045260246000fd5b602002602001015181525090508084600601848154811061326f577f4e487b7100000000000000000000000000000000000000000000000000000000600052603260045260246000fd5b906000526020600020906002020160008201518160000160006101000a81548173ffffffffffffffffffffffffffffffffffffffff021916908373ffffffffffffffffffffffffffffffffffffffff16021790555060208201518160010155905050505b506001816132e191906141da565b9050612fb1565b50505050505050565b600033905090565b828054828255906000526020600020908101928215613335579160200282015b82811115613334578251825591602001919060010190613319565b5b50905061334291906133d0565b5090565b8280548282559060005260206000209081019282156133bf579160200282015b828111156133be5782518260006101000a81548173ffffffffffffffffffffffffffffffffffffffff021916908373ffffffffffffffffffffffffffffffffffffffff16021790555091602001919060010190613366565b5b5090506133cc91906133d0565b5090565b5b808211156133e95760008160009055506001016133d1565b5090565b60006134006133fb846140a6565b614081565b9050808382526020820190508285602086028201111561341f57600080fd5b60005b8581101561344f578161343588826134c5565b845260208401935060208301925050600181019050613422565b5050509392505050565b600061346c613467846140d2565b614081565b9050808382526020820190508285602086028201111561348b57600080fd5b60005b858110156134bb57816134a18882613558565b84526020840193506020830192505060018101905061348e565b5050509392505050565b6000813590506134d481614767565b92915050565b6000815190506134e981614767565b92915050565b600082601f83011261350057600080fd5b81356135108482602086016133ed565b91505092915050565b600082601f83011261352a57600080fd5b813561353a848260208601613459565b91505092915050565b6000815190506135528161477e565b92915050565b60008135905061356781614795565b92915050565b60006020828403121561357f57600080fd5b600061358d848285016134c5565b91505092915050565b6000602082840312156135a857600080fd5b60006135b6848285016134da565b91505092915050565b600080604083850312156135d257600080fd5b60006135e0858286016134c5565b92505060206135f1858286016134c5565b9150509250929050565b6000806040838503121561360e57600080fd5b600061361c858286016134c5565b925050602061362d85828601613558565b9150509250929050565b60008060006060848603121561364c57600080fd5b600061365a868287016134c5565b935050602061366b86828701613558565b925050604061367c868287016134c5565b9150509250925092565b6000806000806080858703121561369c57600080fd5b60006136aa878288016134c5565b94505060206136bb87828801613558565b93505060406136cc878288016134c5565b92505060606136dd87828801613558565b91505092959194509250565b60008060008060008060008060006101208a8c03121561370857600080fd5b60006137168c828d016134c5565b99505060206137278c828d01613558565b98505060406137388c828d01613558565b97505060608a013567ffffffffffffffff81111561375557600080fd5b6137618c828d016134ef565b96505060808a013567ffffffffffffffff81111561377e57600080fd5b61378a8c828d01613519565b95505060a08a013567ffffffffffffffff8111156137a757600080fd5b6137b38c828d01613519565b94505060c08a013567ffffffffffffffff8111156137d057600080fd5b6137dc8c828d016134ef565b93505060e08a013567ffffffffffffffff8111156137f957600080fd5b6138058c828d016134ef565b9250506101008a013567ffffffffffffffff81111561382357600080fd5b61382f8c828d01613519565b9150509295985092959850929598565b60006020828403121561385157600080fd5b600061385f84828501613543565b91505092915050565b60006020828403121561387a57600080fd5b600061388884828501613558565b91505092915050565b600061389d83836138d9565b60208301905092915050565b60006138b58383613d01565b60408301905092915050565b60006138cd8383613d48565b60208301905092915050565b6138e281614319565b82525050565b6138f181614319565b82525050565b60006139028261413d565b61390c8185614185565b9350613917836140fe565b8060005b8381101561394f5761392c82614453565b6139368882613891565b97506139418361415e565b92505060018101905061391b565b5085935050505092915050565b60006139678261413d565b6139718185614196565b935061397c836140fe565b8060005b838110156139b45761399182614453565b61399b8882613891565b97506139a68361415e565b925050600181019050613980565b5085935050505092915050565b60006139cc82614148565b6139d681856141a7565b93506139e183614113565b8060005b83811015613a1157816139f888826138a9565b9750613a038361416b565b9250506001810190506139e5565b5085935050505092915050565b6000613a2982614153565b613a3381856141b8565b9350613a3e83614128565b8060005b83811015613a7657613a5382614466565b613a5d88826138c1565b9750613a6883614178565b925050600181019050613a42565b5085935050505092915050565b613a8c8161432b565b82525050565b6000613a9f602e836141c9565b9150613aaa82614497565b604082019050919050565b6000613ac26026836141c9565b9150613acd826144e6565b604082019050919050565b6000613ae5601f836141c9565b9150613af082614535565b602082019050919050565b6000613b08601a836141c9565b9150613b138261455e565b602082019050919050565b6000613b2b603a836141c9565b9150613b3682614587565b604082019050919050565b6000613b4e6013836141c9565b9150613b59826145d6565b602082019050919050565b6000613b71601b836141c9565b9150613b7c826145ff565b602082019050919050565b6000613b946019836141c9565b9150613b9f82614628565b602082019050919050565b6000613bb76020836141c9565b9150613bc282614651565b602082019050919050565b6000613bda6028836141c9565b9150613be58261467a565b604082019050919050565b6000613bfd6027836141c9565b9150613c08826146c9565b604082019050919050565b6000613c206022836141c9565b9150613c2b82614718565b604082019050919050565b600060e083016000808401549050613c4d8161437b565b613c5a6000870182613d48565b5060018401549050613c6b8161437b565b613c786020870182613d48565b50600284018583036040870152613c8f83826138f7565b925050600384018583036060870152613ca88382613a1e565b925050600484018583036080870152613cc18382613a1e565b9250506005840185830360a0870152613cda83826138f7565b9250506006840185830360c0870152613cf383826139c1565b925050819250505092915050565b604082016000808301549050613d1681614361565b613d2360008601826138d9565b5060018301549050613d348161437b565b613d416020860182613d48565b5050505050565b613d5181614357565b82525050565b613d6081614357565b82525050565b6000602082019050613d7b60008301846138e8565b92915050565b600060c082019050613d9660008301896138e8565b613da36020830188613a83565b613db060408301876138e8565b613dbd6060830186613d57565b613dca60808301856138e8565b613dd760a0830184613d57565b979650505050505050565b6000604082019050613df760008301856138e8565b613e046020830184613d57565b9392505050565b6000608082019050613e2060008301876138e8565b613e2d6020830186613d57565b613e3a60408301856138e8565b613e476060830184613d57565b95945050505050565b60006040820190508181036000830152613e6a818561395c565b9050613e7960208301846138e8565b9392505050565b6000602082019050613e956000830184613a83565b92915050565b60006020820190508181036000830152613eb481613a92565b9050919050565b60006020820190508181036000830152613ed481613ab5565b9050919050565b60006020820190508181036000830152613ef481613ad8565b9050919050565b60006020820190508181036000830152613f1481613afb565b9050919050565b60006020820190508181036000830152613f3481613b1e565b9050919050565b60006020820190508181036000830152613f5481613b41565b9050919050565b60006020820190508181036000830152613f7481613b64565b9050919050565b60006020820190508181036000830152613f9481613b87565b9050919050565b60006020820190508181036000830152613fb481613baa565b9050919050565b60006020820190508181036000830152613fd481613bcd565b9050919050565b60006020820190508181036000830152613ff481613bf0565b9050919050565b6000602082019050818103600083015261401481613c13565b9050919050565b600060208201905081810360008301526140358184613c36565b905092915050565b60006020820190506140526000830184613d57565b92915050565b600060408201905061406d6000830185613d57565b61407a6020830184613d57565b9392505050565b600061408b61409c565b90506140978282614395565b919050565b6000604051905090565b600067ffffffffffffffff8211156140c1576140c0614424565b5b602082029050602081019050919050565b600067ffffffffffffffff8211156140ed576140ec614424565b5b602082029050602081019050919050565b60008190508160005260206000209050919050565b60008190508160005260206000209050919050565b60008190508160005260206000209050919050565b600081549050919050565b600081549050919050565b600081549050919050565b6000600182019050919050565b6000600282019050919050565b6000600182019050919050565b600082825260208201905092915050565b600082825260208201905092915050565b600082825260208201905092915050565b600082825260208201905092915050565b600082825260208201905092915050565b60006141e582614357565b91506141f083614357565b9250827fffffffffffffffffffffffffffffffffffffffffffffffffffffffffffffffff03821115614225576142246143c6565b5b828201905092915050565b600061423b82614357565b915061424683614357565b925082614256576142556143f5565b5b828204905092915050565b600061426c82614357565b915061427783614357565b9250817fffffffffffffffffffffffffffffffffffffffffffffffffffffffffffffffff04831182151516156142b0576142af6143c6565b5b828202905092915050565b60006142c682614357565b91506142d183614357565b9250828210156142e4576142e36143c6565b5b828203905092915050565b600073ffffffffffffffffffffffffffffffffffffffff82169050919050565b6000819050919050565b600061432482614337565b9050919050565b60008115159050919050565b600073ffffffffffffffffffffffffffffffffffffffff82169050919050565b6000819050919050565b600061437461436f8361448a565b6142ef565b9050919050565b600061438e6143898361448a565b61430f565b9050919050565b61439e82614479565b810181811067ffffffffffffffff821117156143bd576143bc614424565b5b80604052505050565b7f4e487b7100000000000000000000000000000000000000000000000000000000600052601160045260246000fd5b7f4e487b7100000000000000000000000000000000000000000000000000000000600052601260045260246000fd5b7f4e487b7100000000000000000000000000000000000000000000000000000000600052604160045260246000fd5b600061445f8254614361565b9050919050565b6000614472825461437b565b9050919050565b6000601f19601f8301169050919050565b60008160001c9050919050565b7f4f776e657227732073686172652067726561746572207468616e2031302c303060008201527f3020626173697320706f696e7473000000000000000000000000000000000000602082015250565b7f4f776e61626c653a206e6577206f776e657220697320746865207a65726f206160008201527f6464726573730000000000000000000000000000000000000000000000000000602082015250565b7f4d6573736167652073656e64657220646f6573206e6f74206f776e204e465400600082015250565b7f4e6f20726967687473206d616e6167657220617420696e646578000000000000600082015250565b7f4d6573736167652073656e646572206973206e6f74206120726567697374657260008201527f656420726967687473206d616e6167657220636f6e7472616374000000000000602082015250565b7f52696768747320646f206e6f7420657869737400000000000000000000000000600082015250565b7f4552433230207769746864726177616c20666565206661696c65640000000000600082015250565b7f4e465420646f6573206e6f742068617665206c6963656e736500000000000000600082015250565b7f4f776e61626c653a2063616c6c6572206973206e6f7420746865206f776e6572600082015250565b7f4e6577206665652067726561746572207468616e2031302c303030206261736960008201527f7320706f696e7473000000000000000000000000000000000000000000000000602082015250565b7f302061646472657373207375626d697474656420746f2061646452696768747360008201527f4d616e6167657200000000000000000000000000000000000000000000000000602082015250565b7f526563697069656e74204552433230207769746864726177616c206661696c6560008201527f642e000000000000000000000000000000000000000000000000000000000000602082015250565b61477081614319565b811461477b57600080fd5b50565b6147878161432b565b811461479257600080fd5b50565b61479e81614357565b81146147a957600080fd5b5056fea2646970667358221220f4104d18ec79c0e2e30fc19e2f11584d6c6298c0056a587426162fdd1d69a91464736f6c63430008030033",
  "linkReferences": {},
  "deployedLinkReferences": {}
}