{
  "_format": "hh-sol-artifact-1",
  "contractName": "Squad",
  "sourceName": "contracts/Squad.sol",
  "abi": [
    {
      "inputs": [
        {
          "internalType": "address[]",
          "name": "_rightsManagers",
          "type": "address[]"
        },
        {
          "internalType": "uint256",
          "name": "_fee",
          "type": "uint256"
        }
      ],
      "stateMutability": "nonpayable",
      "type": "constructor"
    },
    {
      "anonymous": false,
      "inputs": [
        {
          "indexed": false,
          "internalType": "address",
          "name": "rightsManager",
          "type": "address"
        }
      ],
      "name": "AddRightsManager",
      "type": "event"
    },
    {
      "anonymous": false,
      "inputs": [
        {
          "components": [
            {
              "internalType": "uint256",
              "name": "id",
              "type": "uint256"
            },
            {
              "internalType": "uint256",
              "name": "ownerShare",
              "type": "uint256"
            },
            {
              "internalType": "address[]",
              "name": "weightsAddresses",
              "type": "address[]"
            },
            {
              "internalType": "uint256[]",
              "name": "weightsIds",
              "type": "uint256[]"
            },
            {
              "internalType": "uint256[]",
              "name": "weights",
              "type": "uint256[]"
            },
            {
              "internalType": "address[]",
              "name": "rightsAddresses",
              "type": "address[]"
            },
            {
              "components": [
                {
                  "internalType": "address",
                  "name": "token",
                  "type": "address"
                },
                {
                  "internalType": "uint256",
                  "name": "amount",
                  "type": "uint256"
                }
              ],
              "internalType": "struct ISquad.RightsParams[]",
              "name": "rights",
              "type": "tuple[]"
            }
          ],
          "indexed": false,
          "internalType": "struct ISquad.License",
          "name": "license",
          "type": "tuple"
        }
      ],
      "name": "NFTRegistered",
      "type": "event"
    },
    {
      "anonymous": false,
      "inputs": [
        {
          "indexed": true,
          "internalType": "address",
          "name": "previousOwner",
          "type": "address"
        },
        {
          "indexed": true,
          "internalType": "address",
          "name": "newOwner",
          "type": "address"
        }
      ],
      "name": "OwnershipTransferred",
      "type": "event"
    },
    {
      "anonymous": false,
      "inputs": [
        {
          "indexed": false,
          "internalType": "address",
          "name": "asset",
          "type": "address"
        },
        {
          "indexed": false,
          "internalType": "uint256",
          "name": "amount",
          "type": "uint256"
        },
        {
          "indexed": false,
          "internalType": "address",
          "name": "nftAdress",
          "type": "address"
        },
        {
          "indexed": false,
          "internalType": "uint256",
          "name": "nftId",
          "type": "uint256"
        }
      ],
      "name": "PaymentAdded",
      "type": "event"
    },
    {
      "anonymous": false,
      "inputs": [
        {
          "indexed": false,
          "internalType": "uint256",
          "name": "amount",
          "type": "uint256"
        }
      ],
      "name": "ReceiveEther",
      "type": "event"
    },
    {
      "anonymous": false,
      "inputs": [
        {
          "indexed": false,
          "internalType": "address[]",
          "name": "rightsManagers",
          "type": "address[]"
        },
        {
          "indexed": false,
          "internalType": "address",
          "name": "removedRightsManager",
          "type": "address"
        }
      ],
      "name": "RemoveRightsManager",
      "type": "event"
    },
    {
      "anonymous": false,
      "inputs": [
        {
          "indexed": false,
          "internalType": "uint256",
          "name": "oldFee",
          "type": "uint256"
        },
        {
          "indexed": false,
          "internalType": "uint256",
          "name": "newFee",
          "type": "uint256"
        }
      ],
      "name": "SetFee",
      "type": "event"
    },
    {
      "anonymous": false,
      "inputs": [
        {
          "indexed": false,
          "internalType": "address",
          "name": "asset",
          "type": "address"
        },
        {
          "indexed": false,
          "internalType": "bool",
          "name": "Eth",
          "type": "bool"
        },
        {
          "indexed": false,
          "internalType": "address",
          "name": "recipient",
          "type": "address"
        },
        {
          "indexed": false,
          "internalType": "uint256",
          "name": "amount",
          "type": "uint256"
        },
        {
          "indexed": false,
          "internalType": "address",
          "name": "owner",
          "type": "address"
        },
        {
          "indexed": false,
          "internalType": "uint256",
          "name": "ownerFee",
          "type": "uint256"
        }
      ],
      "name": "Withdrawal",
      "type": "event"
    },
    {
      "stateMutability": "payable",
      "type": "fallback"
    },
    {
      "inputs": [
        {
          "internalType": "address",
          "name": "asset",
          "type": "address"
        },
        {
          "internalType": "uint256",
          "name": "amount",
          "type": "uint256"
        },
        {
          "internalType": "address",
          "name": "nftAddress",
          "type": "address"
        },
        {
          "internalType": "uint256",
          "name": "nftId",
          "type": "uint256"
        }
      ],
      "name": "addPayment",
      "outputs": [],
      "stateMutability": "nonpayable",
      "type": "function"
    },
    {
      "inputs": [
        {
          "internalType": "address",
          "name": "rightsManager",
          "type": "address"
        }
      ],
      "name": "addRightsManager",
      "outputs": [],
      "stateMutability": "nonpayable",
      "type": "function"
    },
    {
      "inputs": [
        {
          "internalType": "address",
          "name": "",
          "type": "address"
        },
        {
          "internalType": "address",
          "name": "",
          "type": "address"
        }
      ],
      "name": "balances",
      "outputs": [
        {
          "internalType": "uint256",
          "name": "",
          "type": "uint256"
        }
      ],
      "stateMutability": "view",
      "type": "function"
    },
    {
      "inputs": [],
      "name": "fee",
      "outputs": [
        {
          "internalType": "uint256",
          "name": "",
          "type": "uint256"
        }
      ],
      "stateMutability": "view",
      "type": "function"
    },
    {
      "inputs": [
        {
          "internalType": "address",
          "name": "",
          "type": "address"
        },
        {
          "internalType": "uint256",
          "name": "",
          "type": "uint256"
        }
      ],
      "name": "licenses",
      "outputs": [
        {
          "internalType": "uint256",
          "name": "id",
          "type": "uint256"
        },
        {
          "internalType": "uint256",
          "name": "ownerShare",
          "type": "uint256"
        }
      ],
      "stateMutability": "view",
      "type": "function"
    },
    {
      "inputs": [],
      "name": "owner",
      "outputs": [
        {
          "internalType": "address",
          "name": "",
          "type": "address"
        }
      ],
      "stateMutability": "view",
      "type": "function"
    },
    {
      "inputs": [
        {
          "internalType": "address",
          "name": "nftAddress",
          "type": "address"
        },
        {
          "internalType": "uint256",
          "name": "nftId",
          "type": "uint256"
        },
        {
          "internalType": "uint256",
          "name": "ownerShare",
          "type": "uint256"
        },
        {
          "internalType": "address[]",
          "name": "weightsAddresses",
          "type": "address[]"
        },
        {
          "internalType": "uint256[]",
          "name": "weightsIds",
          "type": "uint256[]"
        },
        {
          "internalType": "uint256[]",
          "name": "weights",
          "type": "uint256[]"
        },
        {
          "internalType": "address[]",
          "name": "rightsAddresses",
          "type": "address[]"
        },
        {
          "internalType": "address[]",
          "name": "rightsTokens",
          "type": "address[]"
        },
        {
          "internalType": "uint256[]",
          "name": "rightsAmounts",
          "type": "uint256[]"
        }
      ],
      "name": "registerNFT",
      "outputs": [],
      "stateMutability": "nonpayable",
      "type": "function"
    },
    {
      "inputs": [
        {
          "internalType": "uint256",
          "name": "rightsManagerIndex",
          "type": "uint256"
        }
      ],
      "name": "removeRightsManager",
      "outputs": [],
      "stateMutability": "nonpayable",
      "type": "function"
    },
    {
      "inputs": [],
      "name": "renounceOwnership",
      "outputs": [],
      "stateMutability": "nonpayable",
      "type": "function"
    },
    {
      "inputs": [
        {
          "internalType": "uint256",
          "name": "",
          "type": "uint256"
        }
      ],
      "name": "rightsManagers",
      "outputs": [
        {
          "internalType": "address",
          "name": "",
          "type": "address"
        }
      ],
      "stateMutability": "view",
      "type": "function"
    },
    {
      "inputs": [
        {
          "internalType": "address",
          "name": "nftAddress",
          "type": "address"
        },
        {
          "internalType": "uint256",
          "name": "nftId",
          "type": "uint256"
        },
        {
          "internalType": "address",
          "name": "rightsManager",
          "type": "address"
        }
      ],
      "name": "rightsParamsFor",
      "outputs": [
        {
          "internalType": "address",
          "name": "",
          "type": "address"
        },
        {
          "internalType": "uint256",
          "name": "",
          "type": "uint256"
        }
      ],
      "stateMutability": "view",
      "type": "function"
    },
    {
      "inputs": [
        {
          "internalType": "uint256",
          "name": "_fee",
          "type": "uint256"
        }
      ],
      "name": "setFee",
      "outputs": [],
      "stateMutability": "nonpayable",
      "type": "function"
    },
    {
      "inputs": [
        {
          "internalType": "uint256",
          "name": "",
          "type": "uint256"
        }
      ],
      "name": "tokenArray",
      "outputs": [
        {
          "internalType": "address",
          "name": "",
          "type": "address"
        }
      ],
      "stateMutability": "view",
      "type": "function"
    },
    {
      "inputs": [
        {
          "internalType": "address",
          "name": "",
          "type": "address"
        }
      ],
      "name": "tokenMapping",
      "outputs": [
        {
          "internalType": "bool",
          "name": "",
          "type": "bool"
        }
      ],
      "stateMutability": "view",
      "type": "function"
    },
    {
      "inputs": [
        {
          "internalType": "address",
          "name": "newOwner",
          "type": "address"
        }
      ],
      "name": "transferOwnership",
      "outputs": [],
      "stateMutability": "nonpayable",
      "type": "function"
    },
    {
      "inputs": [
        {
          "internalType": "address",
          "name": "asset",
          "type": "address"
        },
        {
          "internalType": "address",
          "name": "recipient",
          "type": "address"
        }
      ],
      "name": "withdraw",
      "outputs": [],
      "stateMutability": "nonpayable",
      "type": "function"
    },
    {
      "stateMutability": "payable",
      "type": "receive"
    }
  ],
  "bytecode": "0x60806040523480156200001157600080fd5b5060405162004aef38038062004aef8339818101604052810190620000379190620002dd565b6000620000496200015760201b60201c565b9050806000806101000a81548173ffffffffffffffffffffffffffffffffffffffff021916908373ffffffffffffffffffffffffffffffffffffffff1602179055508073ffffffffffffffffffffffffffffffffffffffff16600073ffffffffffffffffffffffffffffffffffffffff167f8be0079c531659141344cd1fd0a4f28419497f9722a3daafe3b4186f6b6457e060405160405180910390a3506127108111156200012f576040517f08c379a000000000000000000000000000000000000000000000000000000000815260040162000126906200035e565b60405180910390fd5b8160019080519060200190620001479291906200015f565b5080600781905550505062000520565b600033905090565b828054828255906000526020600020908101928215620001db579160200282015b82811115620001da5782518260006101000a81548173ffffffffffffffffffffffffffffffffffffffff021916908373ffffffffffffffffffffffffffffffffffffffff1602179055509160200191906001019062000180565b5b509050620001ea9190620001ee565b5090565b5b8082111562000209576000816000905550600101620001ef565b5090565b6000620002246200021e84620003a9565b62000380565b905080838252602082019050828560208602820111156200024457600080fd5b60005b858110156200027857816200025d888262000282565b84526020840193506020830192505060018101905062000247565b5050509392505050565b6000815190506200029381620004ec565b92915050565b600082601f830112620002ab57600080fd5b8151620002bd8482602086016200020d565b91505092915050565b600081519050620002d78162000506565b92915050565b60008060408385031215620002f157600080fd5b600083015167ffffffffffffffff8111156200030c57600080fd5b6200031a8582860162000299565b92505060206200032d85828601620002c6565b9150509250929050565b600062000346602483620003d8565b915062000353826200049d565b604082019050919050565b60006020820190508181036000830152620003798162000337565b9050919050565b60006200038c6200039f565b90506200039a828262000427565b919050565b6000604051905090565b600067ffffffffffffffff821115620003c757620003c66200045d565b5b602082029050602081019050919050565b600082825260208201905092915050565b6000620003f682620003fd565b9050919050565b600073ffffffffffffffffffffffffffffffffffffffff82169050919050565b6000819050919050565b62000432826200048c565b810181811067ffffffffffffffff821117156200045457620004536200045d565b5b80604052505050565b7f4e487b7100000000000000000000000000000000000000000000000000000000600052604160045260246000fd5b6000601f19601f8301169050919050565b7f4665652067726561746572207468616e2031302c30303020626173697320706f60008201527f696e747300000000000000000000000000000000000000000000000000000000602082015250565b620004f781620003e9565b81146200050357600080fd5b50565b62000511816200041d565b81146200051d57600080fd5b50565b6145bf80620005306000396000f3fe6080604052600436106100f75760003560e01c806391bad00d1161008a578063ddca3f4311610059578063ddca3f43146103b0578063f2fde38b146103db578063f940e38514610404578063faa32f5d1461042d57610135565b806391bad00d146102e4578063b02820741461030d578063ba27f50b14610336578063c23f001f1461037357610135565b806369fe0e2d116100c657806369fe0e2d1461023c578063715018a6146102655780637a0c7ec71461027c5780638da5cb5b146102b957610135565b80630be644ee1461016e5780632a13bae4146101ac5780633eac0b57146101d55780635130eebd146101fe57610135565b36610135577fceeedae0890c8b65dd388797879b0ea414f47e1bb170734056b4004c4a7e18143460405161012b9190613e1a565b60405180910390a1005b7fceeedae0890c8b65dd388797879b0ea414f47e1bb170734056b4004c4a7e1814346040516101649190613e1a565b60405180910390a1005b34801561017a57600080fd5b50610195600480360381019061019091906133d8565b61046a565b6040516101a3929190613e35565b60405180910390f35b3480156101b857600080fd5b506101d360048036038101906101ce91906134c6565b61049b565b005b3480156101e157600080fd5b506101fc60048036038101906101f79190613463565b61070f565b005b34801561020a57600080fd5b5061022560048036038101906102209190613414565b61115c565b604051610233929190613bbf565b60405180910390f35b34801561024857600080fd5b50610263600480360381019061025e9190613645565b611635565b005b34801561027157600080fd5b5061027a611743565b005b34801561028857600080fd5b506102a3600480360381019061029e9190613645565b61187d565b6040516102b09190613b43565b60405180910390f35b3480156102c557600080fd5b506102ce6118bc565b6040516102db9190613b43565b60405180910390f35b3480156102f057600080fd5b5061030b60048036038101906103069190613645565b6118e5565b005b34801561031957600080fd5b50610334600480360381019061032f919061334a565b611b43565b005b34801561034257600080fd5b5061035d6004803603810190610358919061334a565b611e2d565b60405161036a9190613c5d565b60405180910390f35b34801561037f57600080fd5b5061039a6004803603810190610395919061339c565b611e4d565b6040516103a79190613e1a565b60405180910390f35b3480156103bc57600080fd5b506103c5611e72565b6040516103d29190613e1a565b60405180910390f35b3480156103e757600080fd5b5061040260048036038101906103fd919061334a565b611e78565b005b34801561041057600080fd5b5061042b6004803603810190610426919061339c565b612021565b005b34801561043957600080fd5b50610454600480360381019061044f9190613645565b612449565b6040516104619190613b43565b60405180910390f35b6002602052816000526040600020602052806000526040600020600091509150508060000154908060010154905082565b88888173ffffffffffffffffffffffffffffffffffffffff16636352211e826040518263ffffffff1660e01b81526004016104d69190613e1a565b60206040518083038186803b1580156104ee57600080fd5b505afa158015610502573d6000803e3d6000fd5b505050506040513d601f19601f820116820180604052508101906105269190613373565b73ffffffffffffffffffffffffffffffffffffffff163373ffffffffffffffffffffffffffffffffffffffff1614610593576040517f08c379a000000000000000000000000000000000000000000000000000000000815260040161058a90613cb8565b60405180910390fd5b6127108911156105d8576040517f08c379a00000000000000000000000000000000000000000000000000000000081526004016105cf90613c78565b60405180910390fd5b6000600260008d73ffffffffffffffffffffffffffffffffffffffff1673ffffffffffffffffffffffffffffffffffffffff16815260200190815260200160002060008c81526020019081526020016000209050898160010181905550610640898989612488565b8360020160008560030160008760040160008691905090805190602001906106699291906130d6565b508591905090805190602001906106819291906130d6565b50849190509080519060200190610699929190613123565b505050506106aa8c8c888888612d37565b60016003546106b99190613fb7565b60038190555060035481600001819055507f06f1a6a0037d91c61d2be186be759caa587eea8c54c326125c0e7d1dd58bf798816040516106f99190613df8565b60405180910390a1505050505050505050505050565b6000805b6001805490508110156107d1576001818154811061075a577f4e487b7100000000000000000000000000000000000000000000000000000000600052603260045260246000fd5b9060005260206000200160009054906101000a900473ffffffffffffffffffffffffffffffffffffffff1673ffffffffffffffffffffffffffffffffffffffff163373ffffffffffffffffffffffffffffffffffffffff1614156107bd57600191505b6001816107ca9190613fb7565b9050610713565b506001151581151514610819576040517f08c379a000000000000000000000000000000000000000000000000000000000815260040161081090613cf8565b60405180910390fd5b6000600260008573ffffffffffffffffffffffffffffffffffffffff1673ffffffffffffffffffffffffffffffffffffffff16815260200190815260200160002060008481526020019081526020016000206040518060e001604052908160008201548152602001600182015481526020016002820180548060200260200160405190810160405280929190818152602001828054801561090f57602002820191906000526020600020905b8160009054906101000a900473ffffffffffffffffffffffffffffffffffffffff1673ffffffffffffffffffffffffffffffffffffffff16815260200190600101908083116108c5575b505050505081526020016003820180548060200260200160405190810160405280929190818152602001828054801561096757602002820191906000526020600020905b815481526020019060010190808311610953575b50505050508152602001600482018054806020026020016040519081016040528092919081815260200182805480156109bf57602002820191906000526020600020905b8154815260200190600101908083116109ab575b5050505050815260200160058201805480602002602001604051908101604052809291908181526020018280548015610a4d57602002820191906000526020600020905b8160009054906101000a900473ffffffffffffffffffffffffffffffffffffffff1673ffffffffffffffffffffffffffffffffffffffff1681526020019060010190808311610a03575b5050505050815260200160068201805480602002602001604051908101604052809291908181526020016000905b82821015610b0d57838290600052602060002090600202016040518060400160405290816000820160009054906101000a900473ffffffffffffffffffffffffffffffffffffffff1673ffffffffffffffffffffffffffffffffffffffff1673ffffffffffffffffffffffffffffffffffffffff16815260200160018201548152505081526020019060010190610a7b565b50505050815250509050600081600001511415610b5f576040517f08c379a0000000000000000000000000000000000000000000000000000000008152600401610b5690613d58565b60405180910390fd5b60008473ffffffffffffffffffffffffffffffffffffffff16636352211e856040518263ffffffff1660e01b8152600401610b9a9190613e1a565b60206040518083038186803b158015610bb257600080fd5b505afa158015610bc6573d6000803e3d6000fd5b505050506040513d601f19601f82011682018060405250810190610bea9190613373565b90506000866127108460200151610c01919061400d565b610c0b919061403e565b905060008188610c1b9190614098565b905060001515600560008b73ffffffffffffffffffffffffffffffffffffffff1673ffffffffffffffffffffffffffffffffffffffff16815260200190815260200160002060009054906101000a900460ff1615151415610d32576001600560008b73ffffffffffffffffffffffffffffffffffffffff1673ffffffffffffffffffffffffffffffffffffffff16815260200190815260200160002060006101000a81548160ff0219169083151502179055506004899080600181540180825580915050600190039060005260206000200160009091909190916101000a81548173ffffffffffffffffffffffffffffffffffffffff021916908373ffffffffffffffffffffffffffffffffffffffff1602179055505b60005b84608001515181101561100057600085604001518281518110610d81577f4e487b7100000000000000000000000000000000000000000000000000000000600052603260045260246000fd5b602002602001015173ffffffffffffffffffffffffffffffffffffffff16636352211e87606001518481518110610de1577f4e487b7100000000000000000000000000000000000000000000000000000000600052603260045260246000fd5b60200260200101516040518263ffffffff1660e01b8152600401610e059190613e1a565b60206040518083038186803b158015610e1d57600080fd5b505afa158015610e31573d6000803e3d6000fd5b505050506040513d601f19601f82011682018060405250810190610e559190613373565b905060008361271088608001518581518110610e9a577f4e487b7100000000000000000000000000000000000000000000000000000000600052603260045260246000fd5b60200260200101518960200151612710610eb49190614098565b610ebe919061403e565b610ec8919061400d565b610ed2919061403e565b905080600660008e73ffffffffffffffffffffffffffffffffffffffff1673ffffffffffffffffffffffffffffffffffffffff16815260200190815260200160002060008473ffffffffffffffffffffffffffffffffffffffff1673ffffffffffffffffffffffffffffffffffffffff16815260200190815260200160002054610f5c9190613fb7565b600660008e73ffffffffffffffffffffffffffffffffffffffff1673ffffffffffffffffffffffffffffffffffffffff16815260200190815260200160002060008473ffffffffffffffffffffffffffffffffffffffff1673ffffffffffffffffffffffffffffffffffffffff168152602001908152602001600020819055508084610fe89190614098565b93505050600181610ff99190613fb7565b9050610d35565b508082600660008c73ffffffffffffffffffffffffffffffffffffffff1673ffffffffffffffffffffffffffffffffffffffff16815260200190815260200160002060008673ffffffffffffffffffffffffffffffffffffffff1673ffffffffffffffffffffffffffffffffffffffff1681526020019081526020016000205461108a9190613fb7565b6110949190613fb7565b600660008b73ffffffffffffffffffffffffffffffffffffffff1673ffffffffffffffffffffffffffffffffffffffff16815260200190815260200160002060008573ffffffffffffffffffffffffffffffffffffffff1673ffffffffffffffffffffffffffffffffffffffff168152602001908152602001600020819055507fe0e558597dc2013cc5249ed783e09ffa1f1f3c0c4a674658dc15be6b7e1b17c2898989896040516111499493929190613be8565b60405180910390a1505050505050505050565b6000806000600260008773ffffffffffffffffffffffffffffffffffffffff1673ffffffffffffffffffffffffffffffffffffffff16815260200190815260200160002060008681526020019081526020016000206040518060e001604052908160008201548152602001600182015481526020016002820180548060200260200160405190810160405280929190818152602001828054801561125557602002820191906000526020600020905b8160009054906101000a900473ffffffffffffffffffffffffffffffffffffffff1673ffffffffffffffffffffffffffffffffffffffff168152602001906001019080831161120b575b50505050508152602001600382018054806020026020016040519081016040528092919081815260200182805480156112ad57602002820191906000526020600020905b815481526020019060010190808311611299575b505050505081526020016004820180548060200260200160405190810160405280929190818152602001828054801561130557602002820191906000526020600020905b8154815260200190600101908083116112f1575b505050505081526020016005820180548060200260200160405190810160405280929190818152602001828054801561139357602002820191906000526020600020905b8160009054906101000a900473ffffffffffffffffffffffffffffffffffffffff1673ffffffffffffffffffffffffffffffffffffffff1681526020019060010190808311611349575b5050505050815260200160068201805480602002602001604051908101604052809291908181526020016000905b8282101561145357838290600052602060002090600202016040518060400160405290816000820160009054906101000a900473ffffffffffffffffffffffffffffffffffffffff1673ffffffffffffffffffffffffffffffffffffffff1673ffffffffffffffffffffffffffffffffffffffff168152602001600182015481525050815260200190600101906113c1565b505050508152505090506000816000015114156114a5576040517f08c379a000000000000000000000000000000000000000000000000000000000815260040161149c90613d58565b60405180910390fd5b60008060005b8360c001515181101561154c578673ffffffffffffffffffffffffffffffffffffffff168460a00151828151811061150c577f4e487b7100000000000000000000000000000000000000000000000000000000600052603260045260246000fd5b602002602001015173ffffffffffffffffffffffffffffffffffffffff16141561153857600191508092505b6001816115459190613fb7565b90506114ab565b506001151581151514611594576040517f08c379a000000000000000000000000000000000000000000000000000000000815260040161158b90613d18565b60405180910390fd5b8260c0015182815181106115d1577f4e487b7100000000000000000000000000000000000000000000000000000000600052603260045260246000fd5b6020026020010151600001518360c00151838151811061161a577f4e487b7100000000000000000000000000000000000000000000000000000000600052603260045260246000fd5b60200260200101516020015194509450505050935093915050565b61163d6130ce565b73ffffffffffffffffffffffffffffffffffffffff1661165b6118bc565b73ffffffffffffffffffffffffffffffffffffffff16146116b1576040517f08c379a00000000000000000000000000000000000000000000000000000000081526004016116a890613d78565b60405180910390fd5b6127108111156116f6576040517f08c379a00000000000000000000000000000000000000000000000000000000081526004016116ed90613d98565b60405180910390fd5b60006007549050816007819055507f032dc6a2d839eb179729a55633fdf1c41a1fc4739394154117005db2b354b9b581600754604051611737929190613e35565b60405180910390a15050565b61174b6130ce565b73ffffffffffffffffffffffffffffffffffffffff166117696118bc565b73ffffffffffffffffffffffffffffffffffffffff16146117bf576040517f08c379a00000000000000000000000000000000000000000000000000000000081526004016117b690613d78565b60405180910390fd5b600073ffffffffffffffffffffffffffffffffffffffff1660008054906101000a900473ffffffffffffffffffffffffffffffffffffffff1673ffffffffffffffffffffffffffffffffffffffff167f8be0079c531659141344cd1fd0a4f28419497f9722a3daafe3b4186f6b6457e060405160405180910390a360008060006101000a81548173ffffffffffffffffffffffffffffffffffffffff021916908373ffffffffffffffffffffffffffffffffffffffff160217905550565b6001818154811061188d57600080fd5b906000526020600020016000915054906101000a900473ffffffffffffffffffffffffffffffffffffffff1681565b60008060009054906101000a900473ffffffffffffffffffffffffffffffffffffffff16905090565b6118ed6130ce565b73ffffffffffffffffffffffffffffffffffffffff1661190b6118bc565b73ffffffffffffffffffffffffffffffffffffffff1614611961576040517f08c379a000000000000000000000000000000000000000000000000000000000815260040161195890613d78565b60405180910390fd5b600073ffffffffffffffffffffffffffffffffffffffff16600182815481106119b3577f4e487b7100000000000000000000000000000000000000000000000000000000600052603260045260246000fd5b9060005260206000200160009054906101000a900473ffffffffffffffffffffffffffffffffffffffff1673ffffffffffffffffffffffffffffffffffffffff161415611a35576040517f08c379a0000000000000000000000000000000000000000000000000000000008152600401611a2c90613cd8565b60405180910390fd5b600060018281548110611a71577f4e487b7100000000000000000000000000000000000000000000000000000000600052603260045260246000fd5b9060005260206000200160009054906101000a900473ffffffffffffffffffffffffffffffffffffffff16905060018281548110611ad8577f4e487b7100000000000000000000000000000000000000000000000000000000600052603260045260246000fd5b9060005260206000200160006101000a81549073ffffffffffffffffffffffffffffffffffffffff02191690557f31338989bd8204557c14281b3a20f405f82c5b2d613722755472ba1ee1050773600182604051611b37929190613c2d565b60405180910390a15050565b611b4b6130ce565b73ffffffffffffffffffffffffffffffffffffffff16611b696118bc565b73ffffffffffffffffffffffffffffffffffffffff1614611bbf576040517f08c379a0000000000000000000000000000000000000000000000000000000008152600401611bb690613d78565b60405180910390fd5b600073ffffffffffffffffffffffffffffffffffffffff168173ffffffffffffffffffffffffffffffffffffffff161415611c2f576040517f08c379a0000000000000000000000000000000000000000000000000000000008152600401611c2690613db8565b60405180910390fd5b60008060005b600180549050811015611cf757600073ffffffffffffffffffffffffffffffffffffffff1660018281548110611c94577f4e487b7100000000000000000000000000000000000000000000000000000000600052603260045260246000fd5b9060005260206000200160009054906101000a900473ffffffffffffffffffffffffffffffffffffffff1673ffffffffffffffffffffffffffffffffffffffff161415611ce357600191508092505b600181611cf09190613fb7565b9050611c35565b50600115158115151415611d8d578260018381548110611d40577f4e487b7100000000000000000000000000000000000000000000000000000000600052603260045260246000fd5b9060005260206000200160006101000a81548173ffffffffffffffffffffffffffffffffffffffff021916908373ffffffffffffffffffffffffffffffffffffffff160217905550611df1565b6001839080600181540180825580915050600190039060005260206000200160009091909190916101000a81548173ffffffffffffffffffffffffffffffffffffffff021916908373ffffffffffffffffffffffffffffffffffffffff1602179055505b7f93b58dd02688d392470b6e0f580232698e43e486329d73ad752846ca2ea46ec083604051611e209190613b43565b60405180910390a1505050565b60056020528060005260406000206000915054906101000a900460ff1681565b6006602052816000526040600020602052806000526040600020600091509150505481565b60075481565b611e806130ce565b73ffffffffffffffffffffffffffffffffffffffff16611e9e6118bc565b73ffffffffffffffffffffffffffffffffffffffff1614611ef4576040517f08c379a0000000000000000000000000000000000000000000000000000000008152600401611eeb90613d78565b60405180910390fd5b600073ffffffffffffffffffffffffffffffffffffffff168173ffffffffffffffffffffffffffffffffffffffff161415611f64576040517f08c379a0000000000000000000000000000000000000000000000000000000008152600401611f5b90613c98565b60405180910390fd5b8073ffffffffffffffffffffffffffffffffffffffff1660008054906101000a900473ffffffffffffffffffffffffffffffffffffffff1673ffffffffffffffffffffffffffffffffffffffff167f8be0079c531659141344cd1fd0a4f28419497f9722a3daafe3b4186f6b6457e060405160405180910390a3806000806101000a81548173ffffffffffffffffffffffffffffffffffffffff021916908373ffffffffffffffffffffffffffffffffffffffff16021790555050565b6000612710600754600660008673ffffffffffffffffffffffffffffffffffffffff1673ffffffffffffffffffffffffffffffffffffffff16815260200190815260200160002060008573ffffffffffffffffffffffffffffffffffffffff1673ffffffffffffffffffffffffffffffffffffffff168152602001908152602001600020546120b0919061403e565b6120ba919061400d565b9050600081600660008673ffffffffffffffffffffffffffffffffffffffff1673ffffffffffffffffffffffffffffffffffffffff16815260200190815260200160002060008573ffffffffffffffffffffffffffffffffffffffff1673ffffffffffffffffffffffffffffffffffffffff168152602001908152602001600020546121469190614098565b90508181600660008773ffffffffffffffffffffffffffffffffffffffff1673ffffffffffffffffffffffffffffffffffffffff16815260200190815260200160002060008673ffffffffffffffffffffffffffffffffffffffff1673ffffffffffffffffffffffffffffffffffffffff168152602001908152602001600020546121d19190614098565b6121db9190614098565b600660008673ffffffffffffffffffffffffffffffffffffffff1673ffffffffffffffffffffffffffffffffffffffff16815260200190815260200160002060008573ffffffffffffffffffffffffffffffffffffffff1673ffffffffffffffffffffffffffffffffffffffff168152602001908152602001600020819055508373ffffffffffffffffffffffffffffffffffffffff1663a9059cbb84836040518363ffffffff1660e01b8152600401612296929190613bbf565b602060405180830381600087803b1580156122b057600080fd5b505af11580156122c4573d6000803e3d6000fd5b505050506040513d601f19601f820116820180604052508101906122e8919061361c565b612327576040517f08c379a000000000000000000000000000000000000000000000000000000000815260040161231e90613dd8565b60405180910390fd5b8373ffffffffffffffffffffffffffffffffffffffff1663a9059cbb61234b6118bc565b846040518363ffffffff1660e01b8152600401612369929190613bbf565b602060405180830381600087803b15801561238357600080fd5b505af1158015612397573d6000803e3d6000fd5b505050506040513d601f19601f820116820180604052508101906123bb919061361c565b6123fa576040517f08c379a00000000000000000000000000000000000000000000000000000000081526004016123f190613d38565b60405180910390fd5b7f6a90cfd885763a9a16aabbe9f58ff814dec0bf684a5512d134b1dca4973988ec84600085846124286118bc565b8760405161243b96959493929190613b5e565b60405180910390a150505050565b6004818154811061245957600080fd5b906000526020600020016000915054906101000a900473ffffffffffffffffffffffffffffffffffffffff1681565b60608060606000606080606060005b8851811015612d20576000600260008d84815181106124df577f4e487b7100000000000000000000000000000000000000000000000000000000600052603260045260246000fd5b602002602001015173ffffffffffffffffffffffffffffffffffffffff1673ffffffffffffffffffffffffffffffffffffffff16815260200190815260200160002060008c848151811061255c577f4e487b7100000000000000000000000000000000000000000000000000000000600052603260045260246000fd5b602002602001015181526020019081526020016000206040518060e001604052908160008201548152602001600182015481526020016002820180548060200260200160405190810160405280929190818152602001828054801561261657602002820191906000526020600020905b8160009054906101000a900473ffffffffffffffffffffffffffffffffffffffff1673ffffffffffffffffffffffffffffffffffffffff16815260200190600101908083116125cc575b505050505081526020016003820180548060200260200160405190810160405280929190818152602001828054801561266e57602002820191906000526020600020905b81548152602001906001019080831161265a575b50505050508152602001600482018054806020026020016040519081016040528092919081815260200182805480156126c657602002820191906000526020600020905b8154815260200190600101908083116126b2575b505050505081526020016005820180548060200260200160405190810160405280929190818152602001828054801561275457602002820191906000526020600020905b8160009054906101000a900473ffffffffffffffffffffffffffffffffffffffff1673ffffffffffffffffffffffffffffffffffffffff168152602001906001019080831161270a575b5050505050815260200160068201805480602002602001604051908101604052809291908181526020016000905b8282101561281457838290600052602060002090600202016040518060400160405290816000820160009054906101000a900473ffffffffffffffffffffffffffffffffffffffff1673ffffffffffffffffffffffffffffffffffffffff1673ffffffffffffffffffffffffffffffffffffffff16815260200160018201548152505081526020019060010190612782565b505050508152505090506000816000015114612d0b5760008160800151511115612b3a5760005b816080015151811015612b345760006127108c8581518110612886577f4e487b7100000000000000000000000000000000000000000000000000000000600052603260045260246000fd5b6020026020010151846080015184815181106128cb577f4e487b7100000000000000000000000000000000000000000000000000000000600052603260045260246000fd5b60200260200101516128dd919061403e565b6128e7919061400d565b14612b205781604001518781518110612929577f4e487b7100000000000000000000000000000000000000000000000000000000600052603260045260246000fd5b602002602001015186888151811061296a577f4e487b7100000000000000000000000000000000000000000000000000000000600052603260045260246000fd5b602002602001019073ffffffffffffffffffffffffffffffffffffffff16908173ffffffffffffffffffffffffffffffffffffffff1681525050816060015187815181106129e1577f4e487b7100000000000000000000000000000000000000000000000000000000600052603260045260246000fd5b6020026020010151858881518110612a22577f4e487b7100000000000000000000000000000000000000000000000000000000600052603260045260246000fd5b6020026020010181815250506127108b8481518110612a6a577f4e487b7100000000000000000000000000000000000000000000000000000000600052603260045260246000fd5b602002602001015183608001518381518110612aaf577f4e487b7100000000000000000000000000000000000000000000000000000000600052603260045260246000fd5b6020026020010151612ac1919061403e565b612acb919061400d565b848881518110612b04577f4e487b7100000000000000000000000000000000000000000000000000000000600052603260045260246000fd5b602002602001018181525050600187612b1d9190613fb7565b96505b600181612b2d9190613fb7565b905061283b565b50612d0a565b8b8281518110612b73577f4e487b7100000000000000000000000000000000000000000000000000000000600052603260045260246000fd5b6020026020010151858781518110612bb4577f4e487b7100000000000000000000000000000000000000000000000000000000600052603260045260246000fd5b602002602001019073ffffffffffffffffffffffffffffffffffffffff16908173ffffffffffffffffffffffffffffffffffffffff16815250508a8281518110612c27577f4e487b7100000000000000000000000000000000000000000000000000000000600052603260045260246000fd5b6020026020010151848781518110612c68577f4e487b7100000000000000000000000000000000000000000000000000000000600052603260045260246000fd5b602002602001018181525050898281518110612cad577f4e487b7100000000000000000000000000000000000000000000000000000000600052603260045260246000fd5b6020026020010151838781518110612cee577f4e487b7100000000000000000000000000000000000000000000000000000000600052603260045260246000fd5b602002602001018181525050600186612d079190613fb7565b95505b5b50600181612d199190613fb7565b9050612497565b508282829650965096505050505093509350939050565b6000600260008773ffffffffffffffffffffffffffffffffffffffff1673ffffffffffffffffffffffffffffffffffffffff1681526020019081526020016000206000868152602001908152602001600020905060005b84518110156130c5576000826005018281548110612dd5577f4e487b7100000000000000000000000000000000000000000000000000000000600052603260045260246000fd5b9060005260206000200160009054906101000a900473ffffffffffffffffffffffffffffffffffffffff169050600115158173ffffffffffffffffffffffffffffffffffffffff166317a6b6098a8a6040518363ffffffff1660e01b8152600401612e41929190613bbf565b602060405180830381600087803b158015612e5b57600080fd5b505af1158015612e6f573d6000803e3d6000fd5b505050506040513d601f19601f82011682018060405250810190612e93919061361c565b151514156130b057858281518110612ed4577f4e487b7100000000000000000000000000000000000000000000000000000000600052603260045260246000fd5b6020026020010151836005018381548110612f18577f4e487b7100000000000000000000000000000000000000000000000000000000600052603260045260246000fd5b9060005260206000200160006101000a81548173ffffffffffffffffffffffffffffffffffffffff021916908373ffffffffffffffffffffffffffffffffffffffff16021790555060006040518060400160405280878581518110612fa6577f4e487b7100000000000000000000000000000000000000000000000000000000600052603260045260246000fd5b602002602001015173ffffffffffffffffffffffffffffffffffffffff168152602001868581518110613002577f4e487b7100000000000000000000000000000000000000000000000000000000600052603260045260246000fd5b602002602001015181525090508084600601848154811061304c577f4e487b7100000000000000000000000000000000000000000000000000000000600052603260045260246000fd5b906000526020600020906002020160008201518160000160006101000a81548173ffffffffffffffffffffffffffffffffffffffff021916908373ffffffffffffffffffffffffffffffffffffffff16021790555060208201518160010155905050505b506001816130be9190613fb7565b9050612d8e565b50505050505050565b600033905090565b828054828255906000526020600020908101928215613112579160200282015b828111156131115782518255916020019190600101906130f6565b5b50905061311f91906131ad565b5090565b82805482825590600052602060002090810192821561319c579160200282015b8281111561319b5782518260006101000a81548173ffffffffffffffffffffffffffffffffffffffff021916908373ffffffffffffffffffffffffffffffffffffffff16021790555091602001919060010190613143565b5b5090506131a991906131ad565b5090565b5b808211156131c65760008160009055506001016131ae565b5090565b60006131dd6131d884613e83565b613e5e565b905080838252602082019050828560208602820111156131fc57600080fd5b60005b8581101561322c578161321288826132a2565b8452602084019350602083019250506001810190506131ff565b5050509392505050565b600061324961324484613eaf565b613e5e565b9050808382526020820190508285602086028201111561326857600080fd5b60005b85811015613298578161327e8882613335565b84526020840193506020830192505060018101905061326b565b5050509392505050565b6000813590506132b181614544565b92915050565b6000815190506132c681614544565b92915050565b600082601f8301126132dd57600080fd5b81356132ed8482602086016131ca565b91505092915050565b600082601f83011261330757600080fd5b8135613317848260208601613236565b91505092915050565b60008151905061332f8161455b565b92915050565b60008135905061334481614572565b92915050565b60006020828403121561335c57600080fd5b600061336a848285016132a2565b91505092915050565b60006020828403121561338557600080fd5b6000613393848285016132b7565b91505092915050565b600080604083850312156133af57600080fd5b60006133bd858286016132a2565b92505060206133ce858286016132a2565b9150509250929050565b600080604083850312156133eb57600080fd5b60006133f9858286016132a2565b925050602061340a85828601613335565b9150509250929050565b60008060006060848603121561342957600080fd5b6000613437868287016132a2565b935050602061344886828701613335565b9250506040613459868287016132a2565b9150509250925092565b6000806000806080858703121561347957600080fd5b6000613487878288016132a2565b945050602061349887828801613335565b93505060406134a9878288016132a2565b92505060606134ba87828801613335565b91505092959194509250565b60008060008060008060008060006101208a8c0312156134e557600080fd5b60006134f38c828d016132a2565b99505060206135048c828d01613335565b98505060406135158c828d01613335565b97505060608a013567ffffffffffffffff81111561353257600080fd5b61353e8c828d016132cc565b96505060808a013567ffffffffffffffff81111561355b57600080fd5b6135678c828d016132f6565b95505060a08a013567ffffffffffffffff81111561358457600080fd5b6135908c828d016132f6565b94505060c08a013567ffffffffffffffff8111156135ad57600080fd5b6135b98c828d016132cc565b93505060e08a013567ffffffffffffffff8111156135d657600080fd5b6135e28c828d016132cc565b9250506101008a013567ffffffffffffffff81111561360057600080fd5b61360c8c828d016132f6565b9150509295985092959850929598565b60006020828403121561362e57600080fd5b600061363c84828501613320565b91505092915050565b60006020828403121561365757600080fd5b600061366584828501613335565b91505092915050565b600061367a83836136b6565b60208301905092915050565b60006136928383613ade565b60408301905092915050565b60006136aa8383613b25565b60208301905092915050565b6136bf816140f6565b82525050565b6136ce816140f6565b82525050565b60006136df82613f1a565b6136e98185613f62565b93506136f483613edb565b8060005b8381101561372c5761370982614230565b613713888261366e565b975061371e83613f3b565b9250506001810190506136f8565b5085935050505092915050565b600061374482613f1a565b61374e8185613f73565b935061375983613edb565b8060005b838110156137915761376e82614230565b613778888261366e565b975061378383613f3b565b92505060018101905061375d565b5085935050505092915050565b60006137a982613f25565b6137b38185613f84565b93506137be83613ef0565b8060005b838110156137ee57816137d58882613686565b97506137e083613f48565b9250506001810190506137c2565b5085935050505092915050565b600061380682613f30565b6138108185613f95565b935061381b83613f05565b8060005b838110156138535761383082614243565b61383a888261369e565b975061384583613f55565b92505060018101905061381f565b5085935050505092915050565b61386981614108565b82525050565b600061387c602e83613fa6565b915061388782614274565b604082019050919050565b600061389f602683613fa6565b91506138aa826142c3565b604082019050919050565b60006138c2601f83613fa6565b91506138cd82614312565b602082019050919050565b60006138e5601a83613fa6565b91506138f08261433b565b602082019050919050565b6000613908603a83613fa6565b915061391382614364565b604082019050919050565b600061392b601383613fa6565b9150613936826143b3565b602082019050919050565b600061394e601b83613fa6565b9150613959826143dc565b602082019050919050565b6000613971601983613fa6565b915061397c82614405565b602082019050919050565b6000613994602083613fa6565b915061399f8261442e565b602082019050919050565b60006139b7602883613fa6565b91506139c282614457565b604082019050919050565b60006139da602783613fa6565b91506139e5826144a6565b604082019050919050565b60006139fd602283613fa6565b9150613a08826144f5565b604082019050919050565b600060e083016000808401549050613a2a81614158565b613a376000870182613b25565b5060018401549050613a4881614158565b613a556020870182613b25565b50600284018583036040870152613a6c83826136d4565b925050600384018583036060870152613a8583826137fb565b925050600484018583036080870152613a9e83826137fb565b9250506005840185830360a0870152613ab783826136d4565b9250506006840185830360c0870152613ad0838261379e565b925050819250505092915050565b604082016000808301549050613af38161413e565b613b0060008601826136b6565b5060018301549050613b1181614158565b613b1e6020860182613b25565b5050505050565b613b2e81614134565b82525050565b613b3d81614134565b82525050565b6000602082019050613b5860008301846136c5565b92915050565b600060c082019050613b7360008301896136c5565b613b806020830188613860565b613b8d60408301876136c5565b613b9a6060830186613b34565b613ba760808301856136c5565b613bb460a0830184613b34565b979650505050505050565b6000604082019050613bd460008301856136c5565b613be16020830184613b34565b9392505050565b6000608082019050613bfd60008301876136c5565b613c0a6020830186613b34565b613c1760408301856136c5565b613c246060830184613b34565b95945050505050565b60006040820190508181036000830152613c478185613739565b9050613c5660208301846136c5565b9392505050565b6000602082019050613c726000830184613860565b92915050565b60006020820190508181036000830152613c918161386f565b9050919050565b60006020820190508181036000830152613cb181613892565b9050919050565b60006020820190508181036000830152613cd1816138b5565b9050919050565b60006020820190508181036000830152613cf1816138d8565b9050919050565b60006020820190508181036000830152613d11816138fb565b9050919050565b60006020820190508181036000830152613d318161391e565b9050919050565b60006020820190508181036000830152613d5181613941565b9050919050565b60006020820190508181036000830152613d7181613964565b9050919050565b60006020820190508181036000830152613d9181613987565b9050919050565b60006020820190508181036000830152613db1816139aa565b9050919050565b60006020820190508181036000830152613dd1816139cd565b9050919050565b60006020820190508181036000830152613df1816139f0565b9050919050565b60006020820190508181036000830152613e128184613a13565b905092915050565b6000602082019050613e2f6000830184613b34565b92915050565b6000604082019050613e4a6000830185613b34565b613e576020830184613b34565b9392505050565b6000613e68613e79565b9050613e748282614172565b919050565b6000604051905090565b600067ffffffffffffffff821115613e9e57613e9d614201565b5b602082029050602081019050919050565b600067ffffffffffffffff821115613eca57613ec9614201565b5b602082029050602081019050919050565b60008190508160005260206000209050919050565b60008190508160005260206000209050919050565b60008190508160005260206000209050919050565b600081549050919050565b600081549050919050565b600081549050919050565b6000600182019050919050565b6000600282019050919050565b6000600182019050919050565b600082825260208201905092915050565b600082825260208201905092915050565b600082825260208201905092915050565b600082825260208201905092915050565b600082825260208201905092915050565b6000613fc282614134565b9150613fcd83614134565b9250827fffffffffffffffffffffffffffffffffffffffffffffffffffffffffffffffff03821115614002576140016141a3565b5b828201905092915050565b600061401882614134565b915061402383614134565b925082614033576140326141d2565b5b828204905092915050565b600061404982614134565b915061405483614134565b9250817fffffffffffffffffffffffffffffffffffffffffffffffffffffffffffffffff048311821515161561408d5761408c6141a3565b5b828202905092915050565b60006140a382614134565b91506140ae83614134565b9250828210156140c1576140c06141a3565b5b828203905092915050565b600073ffffffffffffffffffffffffffffffffffffffff82169050919050565b6000819050919050565b600061410182614114565b9050919050565b60008115159050919050565b600073ffffffffffffffffffffffffffffffffffffffff82169050919050565b6000819050919050565b600061415161414c83614267565b6140cc565b9050919050565b600061416b61416683614267565b6140ec565b9050919050565b61417b82614256565b810181811067ffffffffffffffff8211171561419a57614199614201565b5b80604052505050565b7f4e487b7100000000000000000000000000000000000000000000000000000000600052601160045260246000fd5b7f4e487b7100000000000000000000000000000000000000000000000000000000600052601260045260246000fd5b7f4e487b7100000000000000000000000000000000000000000000000000000000600052604160045260246000fd5b600061423c825461413e565b9050919050565b600061424f8254614158565b9050919050565b6000601f19601f8301169050919050565b60008160001c9050919050565b7f4f776e657227732073686172652067726561746572207468616e2031302c303060008201527f3020626173697320706f696e7473000000000000000000000000000000000000602082015250565b7f4f776e61626c653a206e6577206f776e657220697320746865207a65726f206160008201527f6464726573730000000000000000000000000000000000000000000000000000602082015250565b7f4d6573736167652073656e64657220646f6573206e6f74206f776e204e465400600082015250565b7f4e6f20726967687473206d616e6167657220617420696e646578000000000000600082015250565b7f4d6573736167652073656e646572206973206e6f74206120726567697374657260008201527f656420726967687473206d616e6167657220636f6e7472616374000000000000602082015250565b7f52696768747320646f206e6f7420657869737400000000000000000000000000600082015250565b7f4552433230207769746864726177616c20666565206661696c65640000000000600082015250565b7f4e465420646f6573206e6f742068617665206c6963656e736500000000000000600082015250565b7f4f776e61626c653a2063616c6c6572206973206e6f7420746865206f776e6572600082015250565b7f4e6577206665652067726561746572207468616e2031302c303030206261736960008201527f7320706f696e7473000000000000000000000000000000000000000000000000602082015250565b7f302061646472657373207375626d697474656420746f2061646452696768747360008201527f4d616e6167657200000000000000000000000000000000000000000000000000602082015250565b7f526563697069656e74204552433230207769746864726177616c206661696c6560008201527f642e000000000000000000000000000000000000000000000000000000000000602082015250565b61454d816140f6565b811461455857600080fd5b50565b61456481614108565b811461456f57600080fd5b50565b61457b81614134565b811461458657600080fd5b5056fea264697066735822122043a86aa549e872535ed1aa6130c5e935fa03c18a6ac9f56f5568627d20acd5b864736f6c63430008030033",
  "linkReferences": {},
  "deployedLinkReferences": {}
}